{
  "_format": "hh-sol-artifact-1",
  "contractName": "ThirstyThirstySeason01",
  "sourceName": "contracts/ThirstyThirstySeason01.sol",
  "abi": [
    {
      "inputs": [
        {
          "internalType": "string",
          "name": "_name",
          "type": "string"
        },
        {
          "internalType": "string",
          "name": "_symbol",
          "type": "string"
        },
        {
          "internalType": "string",
          "name": "_metadataURI",
          "type": "string"
        },
        {
          "internalType": "address",
          "name": "_proxyRegistryAddress",
          "type": "address"
        },
        {
          "internalType": "uint256",
          "name": "_maxSupply",
          "type": "uint256"
        },
        {
          "internalType": "uint256",
          "name": "_mintPriceInWei",
          "type": "uint256"
        },
        {
          "internalType": "bytes32",
          "name": "_merkleRoot",
          "type": "bytes32"
        }
      ],
      "stateMutability": "nonpayable",
      "type": "constructor"
    },
    {
      "anonymous": false,
      "inputs": [
        {
          "indexed": true,
          "internalType": "address",
          "name": "owner",
          "type": "address"
        },
        {
          "indexed": true,
          "internalType": "address",
          "name": "approved",
          "type": "address"
        },
        {
          "indexed": true,
          "internalType": "uint256",
          "name": "tokenId",
          "type": "uint256"
        }
      ],
      "name": "Approval",
      "type": "event"
    },
    {
      "anonymous": false,
      "inputs": [
        {
          "indexed": true,
          "internalType": "address",
          "name": "owner",
          "type": "address"
        },
        {
          "indexed": true,
          "internalType": "address",
          "name": "operator",
          "type": "address"
        },
        {
          "indexed": false,
          "internalType": "bool",
          "name": "approved",
          "type": "bool"
        }
      ],
      "name": "ApprovalForAll",
      "type": "event"
    },
    {
      "anonymous": false,
      "inputs": [
        {
          "indexed": true,
          "internalType": "address",
          "name": "previousOwner",
          "type": "address"
        },
        {
          "indexed": true,
          "internalType": "address",
          "name": "newOwner",
          "type": "address"
        }
      ],
      "name": "OwnershipTransferred",
      "type": "event"
    },
    {
      "anonymous": false,
      "inputs": [
        {
          "indexed": false,
          "internalType": "address",
          "name": "account",
          "type": "address"
        }
      ],
      "name": "Paused",
      "type": "event"
    },
    {
      "anonymous": false,
      "inputs": [
        {
          "indexed": true,
          "internalType": "address",
          "name": "from",
          "type": "address"
        },
        {
          "indexed": true,
          "internalType": "address",
          "name": "to",
          "type": "address"
        },
        {
          "indexed": true,
          "internalType": "uint256",
          "name": "tokenId",
          "type": "uint256"
        }
      ],
      "name": "Transfer",
      "type": "event"
    },
    {
      "anonymous": false,
      "inputs": [
        {
          "indexed": false,
          "internalType": "address",
          "name": "account",
          "type": "address"
        }
      ],
      "name": "Unpaused",
      "type": "event"
    },
    {
      "inputs": [
        {
          "internalType": "address",
          "name": "_to",
          "type": "address"
        }
      ],
      "name": "airdrop",
      "outputs": [],
      "stateMutability": "nonpayable",
      "type": "function"
    },
    {
      "inputs": [
        {
          "internalType": "address",
          "name": "to",
          "type": "address"
        },
        {
          "internalType": "uint256",
          "name": "tokenId",
          "type": "uint256"
        }
      ],
      "name": "approve",
      "outputs": [],
      "stateMutability": "nonpayable",
      "type": "function"
    },
    {
      "inputs": [
        {
          "internalType": "address",
          "name": "owner",
          "type": "address"
        }
      ],
      "name": "balanceOf",
      "outputs": [
        {
          "internalType": "uint256",
          "name": "",
          "type": "uint256"
        }
      ],
      "stateMutability": "view",
      "type": "function"
    },
    {
      "inputs": [
        {
          "internalType": "uint256",
          "name": "tokenId",
          "type": "uint256"
        }
      ],
      "name": "getApproved",
      "outputs": [
        {
          "internalType": "address",
          "name": "",
          "type": "address"
        }
      ],
      "stateMutability": "view",
      "type": "function"
    },
    {
      "inputs": [
        {
          "internalType": "address",
          "name": "_owner",
          "type": "address"
        },
        {
          "internalType": "address",
          "name": "_operator",
          "type": "address"
        }
      ],
      "name": "isApprovedForAll",
      "outputs": [
        {
          "internalType": "bool",
          "name": "",
          "type": "bool"
        }
      ],
      "stateMutability": "view",
      "type": "function"
    },
    {
      "inputs": [],
      "name": "maxSupply",
      "outputs": [
        {
          "internalType": "uint256",
          "name": "",
          "type": "uint256"
        }
      ],
      "stateMutability": "view",
      "type": "function"
    },
    {
      "inputs": [],
      "name": "merkleRoot",
      "outputs": [
        {
          "internalType": "bytes32",
          "name": "",
          "type": "bytes32"
        }
      ],
      "stateMutability": "view",
      "type": "function"
    },
    {
      "inputs": [],
      "name": "mint",
      "outputs": [],
      "stateMutability": "payable",
      "type": "function"
    },
    {
      "inputs": [
        {
          "internalType": "bytes32[]",
          "name": "_merkleProof",
          "type": "bytes32[]"
        }
      ],
      "name": "mintGold",
      "outputs": [],
      "stateMutability": "payable",
      "type": "function"
    },
    {
      "inputs": [],
      "name": "mintPriceInWei",
      "outputs": [
        {
          "internalType": "uint256",
          "name": "",
          "type": "uint256"
        }
      ],
      "stateMutability": "view",
      "type": "function"
    },
    {
      "inputs": [],
      "name": "name",
      "outputs": [
        {
          "internalType": "string",
          "name": "",
          "type": "string"
        }
      ],
      "stateMutability": "view",
      "type": "function"
    },
    {
      "inputs": [],
      "name": "nextTokenID",
      "outputs": [
        {
          "internalType": "uint256",
          "name": "",
          "type": "uint256"
        }
      ],
      "stateMutability": "view",
      "type": "function"
    },
    {
      "inputs": [],
      "name": "numOfMints",
      "outputs": [
        {
          "internalType": "uint256",
          "name": "",
          "type": "uint256"
        }
      ],
      "stateMutability": "view",
      "type": "function"
    },
    {
      "inputs": [],
      "name": "owner",
      "outputs": [
        {
          "internalType": "address",
          "name": "",
          "type": "address"
        }
      ],
      "stateMutability": "view",
      "type": "function"
    },
    {
      "inputs": [
        {
          "internalType": "uint256",
          "name": "tokenId",
          "type": "uint256"
        }
      ],
      "name": "ownerOf",
      "outputs": [
        {
          "internalType": "address",
          "name": "",
          "type": "address"
        }
      ],
      "stateMutability": "view",
      "type": "function"
    },
    {
      "inputs": [],
      "name": "pause",
      "outputs": [],
      "stateMutability": "nonpayable",
      "type": "function"
    },
    {
      "inputs": [],
      "name": "paused",
      "outputs": [
        {
          "internalType": "bool",
          "name": "",
          "type": "bool"
        }
      ],
      "stateMutability": "view",
      "type": "function"
    },
    {
      "inputs": [],
      "name": "proxyRegistryAddress",
      "outputs": [
        {
          "internalType": "address",
          "name": "",
          "type": "address"
        }
      ],
      "stateMutability": "view",
      "type": "function"
    },
    {
      "inputs": [],
      "name": "renounceOwnership",
      "outputs": [],
      "stateMutability": "nonpayable",
      "type": "function"
    },
    {
      "inputs": [
        {
          "internalType": "address",
          "name": "from",
          "type": "address"
        },
        {
          "internalType": "address",
          "name": "to",
          "type": "address"
        },
        {
          "internalType": "uint256",
          "name": "tokenId",
          "type": "uint256"
        }
      ],
      "name": "safeTransferFrom",
      "outputs": [],
      "stateMutability": "nonpayable",
      "type": "function"
    },
    {
      "inputs": [
        {
          "internalType": "address",
          "name": "from",
          "type": "address"
        },
        {
          "internalType": "address",
          "name": "to",
          "type": "address"
        },
        {
          "internalType": "uint256",
          "name": "tokenId",
          "type": "uint256"
        },
        {
          "internalType": "bytes",
          "name": "_data",
          "type": "bytes"
        }
      ],
      "name": "safeTransferFrom",
      "outputs": [],
      "stateMutability": "nonpayable",
      "type": "function"
    },
    {
      "inputs": [
        {
          "internalType": "address",
          "name": "operator",
          "type": "address"
        },
        {
          "internalType": "bool",
          "name": "approved",
          "type": "bool"
        }
      ],
      "name": "setApprovalForAll",
      "outputs": [],
      "stateMutability": "nonpayable",
      "type": "function"
    },
    {
      "inputs": [
        {
          "internalType": "bytes32",
          "name": "_merkleRoot",
          "type": "bytes32"
        }
      ],
      "name": "setMerkleRoot",
      "outputs": [],
      "stateMutability": "nonpayable",
      "type": "function"
    },
    {
      "inputs": [
        {
          "internalType": "address",
          "name": "_proxyRegistryAddress",
          "type": "address"
        }
      ],
      "name": "setProxyRegistryAddress",
      "outputs": [],
      "stateMutability": "nonpayable",
      "type": "function"
    },
    {
      "inputs": [
        {
          "internalType": "bytes4",
          "name": "interfaceId",
          "type": "bytes4"
        }
      ],
      "name": "supportsInterface",
      "outputs": [
        {
          "internalType": "bool",
          "name": "",
          "type": "bool"
        }
      ],
      "stateMutability": "view",
      "type": "function"
    },
    {
      "inputs": [],
      "name": "symbol",
      "outputs": [
        {
          "internalType": "string",
          "name": "",
          "type": "string"
        }
      ],
      "stateMutability": "view",
      "type": "function"
    },
    {
      "inputs": [
        {
          "internalType": "uint256",
          "name": "_tokenId",
          "type": "uint256"
        }
      ],
      "name": "tokenURI",
      "outputs": [
        {
          "internalType": "string",
          "name": "",
          "type": "string"
        }
      ],
      "stateMutability": "view",
      "type": "function"
    },
    {
      "inputs": [
        {
          "internalType": "address",
          "name": "from",
          "type": "address"
        },
        {
          "internalType": "address",
          "name": "to",
          "type": "address"
        },
        {
          "internalType": "uint256",
          "name": "tokenId",
          "type": "uint256"
        }
      ],
      "name": "transferFrom",
      "outputs": [],
      "stateMutability": "nonpayable",
      "type": "function"
    },
    {
      "inputs": [
        {
          "internalType": "address",
          "name": "newOwner",
          "type": "address"
        }
      ],
      "name": "transferOwnership",
      "outputs": [],
      "stateMutability": "nonpayable",
      "type": "function"
    },
    {
      "inputs": [],
      "name": "unpause",
      "outputs": [],
      "stateMutability": "nonpayable",
      "type": "function"
    }
  ],
  "bytecode": "0x60806040523480156200001157600080fd5b5060405162002c2f38038062002c2f8339810160408190526200003491620002a9565b8651879087906200004d90600090602085019062000150565b5080516200006390600190602084019062000150565b505050620000806200007a620000f160201b60201c565b620000f5565b6006805460ff60a01b191690556009839055600a829055600b819055600c80546001600160a01b0319166001600160a01b0386161790558451620000cc90600790602088019062000150565b50620000e460086200014760201b620015471760201c565b50505050505050620003c9565b3390565b600680546001600160a01b038381166001600160a01b0319831681179093556040519116919082907f8be0079c531659141344cd1fd0a4f28419497f9722a3daafe3b4186f6b6457e090600090a35050565b80546001019055565b8280546200015e9062000376565b90600052602060002090601f016020900481019282620001825760008555620001cd565b82601f106200019d57805160ff1916838001178555620001cd565b82800160010185558215620001cd579182015b82811115620001cd578251825591602001919060010190620001b0565b50620001db929150620001df565b5090565b5b80821115620001db5760008155600101620001e0565b600082601f83011262000207578081fd5b81516001600160401b0380821115620002245762000224620003b3565b604051601f8301601f19908116603f011681019082821181831017156200024f576200024f620003b3565b816040528381526020925086838588010111156200026b578485fd5b8491505b838210156200028e57858201830151818301840152908201906200026f565b838211156200029f57848385830101525b9695505050505050565b600080600080600080600060e0888a031215620002c4578283fd5b87516001600160401b0380821115620002db578485fd5b620002e98b838c01620001f6565b985060208a0151915080821115620002ff578485fd5b6200030d8b838c01620001f6565b975060408a015191508082111562000323578485fd5b50620003328a828b01620001f6565b60608a015190965090506001600160a01b038116811462000351578384fd5b809450506080880151925060a0880151915060c0880151905092959891949750929550565b600181811c908216806200038b57607f821691505b60208210811415620003ad57634e487b7160e01b600052602260045260246000fd5b50919050565b634e487b7160e01b600052604160045260246000fd5b61285680620003d96000396000f3fe6080604052600436106101cd5760003560e01c80637cb64759116100f7578063c87b56dd11610095578063e985e9c511610064578063e985e9c5146104ef578063f101e4811461050f578063f2fde38b14610524578063f43303681461054457600080fd5b8063c87b56dd14610479578063cd7c032614610499578063d26ea6c0146104b9578063d5abeb01146104d957600080fd5b806395d89b41116100d157806395d89b411461040f5780639bcbba1314610424578063a22cb46514610439578063b88d4fde1461045957600080fd5b80637cb64759146103bc5780638456cb59146103dc5780638da5cb5b146103f157600080fd5b806323b872dd1161016f5780635c975abb1161013e5780635c975abb146103375780636352211e1461036757806370a0823114610387578063715018a6146103a757600080fd5b806323b872dd146102be5780632eb4a7ab146102de5780633f4ba83a1461030257806342842e0e1461031757600080fd5b8063095ea7b3116101ab578063095ea7b3146102615780630b23d670146102835780631249c58b1461029657806321860a051461029e57600080fd5b806301ffc9a7146101d257806306fdde0314610207578063081812fc14610229575b600080fd5b3480156101de57600080fd5b506101f26101ed366004612581565b61055a565b60405190151581526020015b60405180910390f35b34801561021357600080fd5b5061021c61063f565b6040516101fe919061266c565b34801561023557600080fd5b50610249610244366004612569565b6106d1565b6040516001600160a01b0390911681526020016101fe565b34801561026d57600080fd5b5061028161027c3660046124ce565b61077c565b005b6102816102913660046124f9565b6108ae565b610281610b59565b3480156102aa57600080fd5b506102816102b9366004612330565b610cc4565b3480156102ca57600080fd5b506102816102d9366004612384565b610e4a565b3480156102ea57600080fd5b506102f4600b5481565b6040519081526020016101fe565b34801561030e57600080fd5b50610281610ed1565b34801561032357600080fd5b50610281610332366004612384565b610f35565b34801561034357600080fd5b5060065474010000000000000000000000000000000000000000900460ff166101f2565b34801561037357600080fd5b50610249610382366004612569565b610f50565b34801561039357600080fd5b506102f46103a2366004612330565b610fdb565b3480156103b357600080fd5b50610281611075565b3480156103c857600080fd5b506102816103d7366004612569565b6110d9565b3480156103e857600080fd5b50610281611138565b3480156103fd57600080fd5b506006546001600160a01b0316610249565b34801561041b57600080fd5b5061021c61119a565b34801561043057600080fd5b506102f46111a9565b34801561044557600080fd5b5061028161045436600461249d565b6111c5565b34801561046557600080fd5b506102816104743660046123c4565b6111d0565b34801561048557600080fd5b5061021c610494366004612569565b61125e565b3480156104a557600080fd5b50600c54610249906001600160a01b031681565b3480156104c557600080fd5b506102816104d4366004612330565b6112ce565b3480156104e557600080fd5b506102f460095481565b3480156104fb57600080fd5b506101f261050a36600461234c565b611362565b34801561051b57600080fd5b506102f461145d565b34801561053057600080fd5b5061028161053f366004612330565b611468565b34801561055057600080fd5b506102f4600a5481565b60007fffffffff0000000000000000000000000000000000000000000000000000000082167f80ac58cd0000000000000000000000000000000000000000000000000000000014806105ed57507fffffffff0000000000000000000000000000000000000000000000000000000082167f5b5e139f00000000000000000000000000000000000000000000000000000000145b8061063957507f01ffc9a7000000000000000000000000000000000000000000000000000000007fffffffff000000000000000000000000000000000000000000000000000000008316145b92915050565b60606000805461064e90612713565b80601f016020809104026020016040519081016040528092919081815260200182805461067a90612713565b80156106c75780601f1061069c576101008083540402835291602001916106c7565b820191906000526020600020905b8154815290600101906020018083116106aa57829003601f168201915b5050505050905090565b6000818152600260205260408120546001600160a01b03166107605760405162461bcd60e51b815260206004820152602c60248201527f4552433732313a20617070726f76656420717565727920666f72206e6f6e657860448201527f697374656e7420746f6b656e000000000000000000000000000000000000000060648201526084015b60405180910390fd5b506000908152600460205260409020546001600160a01b031690565b600061078782610f50565b9050806001600160a01b0316836001600160a01b031614156108115760405162461bcd60e51b815260206004820152602160248201527f4552433732313a20617070726f76616c20746f2063757272656e74206f776e6560448201527f72000000000000000000000000000000000000000000000000000000000000006064820152608401610757565b336001600160a01b038216148061082d575061082d8133611362565b61089f5760405162461bcd60e51b815260206004820152603860248201527f4552433732313a20617070726f76652063616c6c6572206973206e6f74206f7760448201527f6e6572206e6f7220617070726f76656420666f7220616c6c00000000000000006064820152608401610757565b6108a98383611550565b505050565b336000908152600d6020526040902054600660ff909116106109125760405162461bcd60e51b815260206004820152601560248201527f4e6f206d6f7265206d696e7420666f72207573657200000000000000000000006044820152606401610757565b600b5415610a5557336000908152600d602052604090205460ff161561097a5760405162461bcd60e51b815260206004820152601b60248201527f416464726573732068617320616c726561647920636c61696d656400000000006044820152606401610757565b6040517fffffffffffffffffffffffffffffffffffffffff0000000000000000000000003360601b166020820152600090603401604051602081830303815290604052805190602001209050610a0783838080602002602001604051908101604052809392919081815260200183836020028082843760009201919091525050600b5491508490506115d6565b610a535760405162461bcd60e51b815260206004820152601760248201527f41646472657373206e6f7420696e20676f6c646c6973740000000000000000006044820152606401610757565b505b6000610a6060085490565b9050600954811115610ab45760405162461bcd60e51b815260206004820152600860248201527f536f6c64206f75740000000000000000000000000000000000000000000000006044820152606401610757565b600a54341015610b065760405162461bcd60e51b815260206004820152600f60248201527f4e6f7420656e6f7567682066756e6400000000000000000000000000000000006044820152606401610757565b336000908152600d60205260408120805460019290610b2990849060ff16612697565b92506101000a81548160ff021916908360ff160217905550610b4f600880546001019055565b6108a933826115ec565b6000610b6460085490565b9050600954811115610bb85760405162461bcd60e51b815260206004820152600860248201527f536f6c64206f75740000000000000000000000000000000000000000000000006044820152606401610757565b600a54341015610c0a5760405162461bcd60e51b815260206004820152600f60248201527f4e6f7420656e6f7567682066756e6400000000000000000000000000000000006044820152606401610757565b336000908152600d6020526040902054600660ff90911610610c6e5760405162461bcd60e51b815260206004820152601560248201527f4e6f206d6f7265206d696e7420666f72207573657200000000000000000000006044820152606401610757565b336000908152600d60205260408120805460019290610c9190849060ff16612697565b92506101000a81548160ff021916908360ff160217905550610cb7600880546001019055565b610cc133826115ec565b50565b6006546001600160a01b03163314610d1e5760405162461bcd60e51b815260206004820181905260248201527f4f776e61626c653a2063616c6c6572206973206e6f7420746865206f776e65726044820152606401610757565b6001600160a01b0381166000908152600d6020526040902054600660ff90911610610d8b5760405162461bcd60e51b815260206004820152601560248201527f4e6f206d6f7265206d696e7420666f72207573657200000000000000000000006044820152606401610757565b6000610d9660085490565b9050600954811115610dea5760405162461bcd60e51b815260206004820152600860248201527f536f6c64206f75740000000000000000000000000000000000000000000000006044820152606401610757565b6001600160a01b0382166000908152600d60205260408120805460019290610e1690849060ff16612697565b92506101000a81548160ff021916908360ff160217905550610e3c600880546001019055565b610e4682826115ec565b5050565b610e543382611606565b610ec65760405162461bcd60e51b815260206004820152603160248201527f4552433732313a207472616e736665722063616c6c6572206973206e6f74206f60448201527f776e6572206e6f7220617070726f7665640000000000000000000000000000006064820152608401610757565b6108a98383836116ee565b6006546001600160a01b03163314610f2b5760405162461bcd60e51b815260206004820181905260248201527f4f776e61626c653a2063616c6c6572206973206e6f7420746865206f776e65726044820152606401610757565b610f336118de565b565b6108a9838383604051806020016040528060008152506111d0565b6000818152600260205260408120546001600160a01b0316806106395760405162461bcd60e51b815260206004820152602960248201527f4552433732313a206f776e657220717565727920666f72206e6f6e657869737460448201527f656e7420746f6b656e00000000000000000000000000000000000000000000006064820152608401610757565b60006001600160a01b0382166110595760405162461bcd60e51b815260206004820152602a60248201527f4552433732313a2062616c616e636520717565727920666f7220746865207a6560448201527f726f2061646472657373000000000000000000000000000000000000000000006064820152608401610757565b506001600160a01b031660009081526003602052604090205490565b6006546001600160a01b031633146110cf5760405162461bcd60e51b815260206004820181905260248201527f4f776e61626c653a2063616c6c6572206973206e6f7420746865206f776e65726044820152606401610757565b610f3360006119b0565b6006546001600160a01b031633146111335760405162461bcd60e51b815260206004820181905260248201527f4f776e61626c653a2063616c6c6572206973206e6f7420746865206f776e65726044820152606401610757565b600b55565b6006546001600160a01b031633146111925760405162461bcd60e51b815260206004820181905260248201527f4f776e61626c653a2063616c6c6572206973206e6f7420746865206f776e65726044820152606401610757565b610f33611a1a565b60606001805461064e90612713565b600060016111b660085490565b6111c091906126d0565b905090565b610e46338383611aec565b6111da3383611606565b61124c5760405162461bcd60e51b815260206004820152603160248201527f4552433732313a207472616e736665722063616c6c6572206973206e6f74206f60448201527f776e6572206e6f7220617070726f7665640000000000000000000000000000006064820152608401610757565b61125884848484611bd9565b50505050565b6000818152600260205260409020546060906001600160a01b03166112c55760405162461bcd60e51b815260206004820152601f60248201527f55524920717565727920666f72206e6f6e6578697374656e7420746f6b656e006044820152606401610757565b61063982611c62565b6006546001600160a01b031633146113285760405162461bcd60e51b815260206004820181905260248201527f4f776e61626c653a2063616c6c6572206973206e6f7420746865206f776e65726044820152606401610757565b600c80547fffffffffffffffffffffffff0000000000000000000000000000000000000000166001600160a01b0392909216919091179055565b600c546000906001600160a01b03161561142c57600c546040517fc45527910000000000000000000000000000000000000000000000000000000081526001600160a01b03858116600483015291821691841690829063c45527919060240160206040518083038186803b1580156113d957600080fd5b505afa1580156113ed573d6000803e3d6000fd5b505050506040513d601f19601f8201168201806040525081019061141191906125b9565b6001600160a01b0316141561142a576001915050610639565b505b6001600160a01b0380841660009081526005602090815260408083209386168352929052205460ff165b9392505050565b60006111c060085490565b6006546001600160a01b031633146114c25760405162461bcd60e51b815260206004820181905260248201527f4f776e61626c653a2063616c6c6572206973206e6f7420746865206f776e65726044820152606401610757565b6001600160a01b03811661153e5760405162461bcd60e51b815260206004820152602660248201527f4f776e61626c653a206e6577206f776e657220697320746865207a65726f206160448201527f64647265737300000000000000000000000000000000000000000000000000006064820152608401610757565b610cc1816119b0565b80546001019055565b600081815260046020526040902080547fffffffffffffffffffffffff0000000000000000000000000000000000000000166001600160a01b038416908117909155819061159d82610f50565b6001600160a01b03167f8c5be1e5ebec7d5bd14f71427d1e84f3dd0314c0f7b2291e5b200ac8c7c3b92560405160405180910390a45050565b6000826115e38584611d4a565b14949350505050565b610e46828260405180602001604052806000815250611dcc565b6000818152600260205260408120546001600160a01b03166116905760405162461bcd60e51b815260206004820152602c60248201527f4552433732313a206f70657261746f7220717565727920666f72206e6f6e657860448201527f697374656e7420746f6b656e00000000000000000000000000000000000000006064820152608401610757565b600061169b83610f50565b9050806001600160a01b0316846001600160a01b031614806116d65750836001600160a01b03166116cb846106d1565b6001600160a01b0316145b806116e657506116e68185611362565b949350505050565b826001600160a01b031661170182610f50565b6001600160a01b03161461177d5760405162461bcd60e51b815260206004820152602560248201527f4552433732313a207472616e736665722066726f6d20696e636f72726563742060448201527f6f776e65720000000000000000000000000000000000000000000000000000006064820152608401610757565b6001600160a01b0382166117f85760405162461bcd60e51b8152602060048201526024808201527f4552433732313a207472616e7366657220746f20746865207a65726f2061646460448201527f72657373000000000000000000000000000000000000000000000000000000006064820152608401610757565b611803838383611e55565b61180e600082611550565b6001600160a01b03831660009081526003602052604081208054600192906118379084906126d0565b90915550506001600160a01b038216600090815260036020526040812080546001929061186590849061267f565b909155505060008181526002602052604080822080547fffffffffffffffffffffffff0000000000000000000000000000000000000000166001600160a01b0386811691821790925591518493918716917fddf252ad1be2c89b69c2b068fc378daa952ba7f163c4a11628f55a4df523b3ef91a4505050565b60065474010000000000000000000000000000000000000000900460ff166119485760405162461bcd60e51b815260206004820152601460248201527f5061757361626c653a206e6f74207061757365640000000000000000000000006044820152606401610757565b600680547fffffffffffffffffffffff00ffffffffffffffffffffffffffffffffffffffff1690557f5db9ee0a495bf2e6ff9c91a7834c1ba4fdd244a5e8aa4e537bd38aeae4b073aa335b6040516001600160a01b03909116815260200160405180910390a1565b600680546001600160a01b038381167fffffffffffffffffffffffff0000000000000000000000000000000000000000831681179093556040519116919082907f8be0079c531659141344cd1fd0a4f28419497f9722a3daafe3b4186f6b6457e090600090a35050565b60065474010000000000000000000000000000000000000000900460ff1615611a855760405162461bcd60e51b815260206004820152601060248201527f5061757361626c653a20706175736564000000000000000000000000000000006044820152606401610757565b600680547fffffffffffffffffffffff00ffffffffffffffffffffffffffffffffffffffff16740100000000000000000000000000000000000000001790557f62e78cea01bee320cd4e420270b5ea74000d11b0c9f74754ebdbfc544b05a2586119933390565b816001600160a01b0316836001600160a01b03161415611b4e5760405162461bcd60e51b815260206004820152601960248201527f4552433732313a20617070726f766520746f2063616c6c6572000000000000006044820152606401610757565b6001600160a01b0383811660008181526005602090815260408083209487168084529482529182902080547fffffffffffffffffffffffffffffffffffffffffffffffffffffffffffffff001686151590811790915591519182527f17307eab39ab6107e8899845ad3d59bd9653f200f220920489ca2b5937696c31910160405180910390a3505050565b611be48484846116ee565b611bf084848484611ec0565b6112585760405162461bcd60e51b815260206004820152603260248201527f4552433732313a207472616e7366657220746f206e6f6e20455243373231526560448201527f63656976657220696d706c656d656e74657200000000000000000000000000006064820152608401610757565b6000818152600260205260409020546060906001600160a01b0316611cef5760405162461bcd60e51b815260206004820152602f60248201527f4552433732314d657461646174613a2055524920717565727920666f72206e6f60448201527f6e6578697374656e7420746f6b656e00000000000000000000000000000000006064820152608401610757565b6000611cf961206d565b90506000815111611d195760405180602001604052806000815250611456565b80611d238461207c565b604051602001611d34929190612601565b6040516020818303038152906040529392505050565b600081815b8451811015611dc4576000858281518110611d7a57634e487b7160e01b600052603260045260246000fd5b60200260200101519050808311611da05760008381526020829052604090209250611db1565b600081815260208490526040902092505b5080611dbc8161274e565b915050611d4f565b509392505050565b611dd683836121ca565b611de36000848484611ec0565b6108a95760405162461bcd60e51b815260206004820152603260248201527f4552433732313a207472616e7366657220746f206e6f6e20455243373231526560448201527f63656976657220696d706c656d656e74657200000000000000000000000000006064820152608401610757565b60065474010000000000000000000000000000000000000000900460ff16156108a95760405162461bcd60e51b815260206004820152601060248201527f5061757361626c653a20706175736564000000000000000000000000000000006044820152606401610757565b60006001600160a01b0384163b15612062576040517f150b7a020000000000000000000000000000000000000000000000000000000081526001600160a01b0385169063150b7a0290611f1d903390899088908890600401612630565b602060405180830381600087803b158015611f3757600080fd5b505af1925050508015611f67575060408051601f3d908101601f19168201909252611f649181019061259d565b60015b612017573d808015611f95576040519150601f19603f3d011682016040523d82523d6000602084013e611f9a565b606091505b50805161200f5760405162461bcd60e51b815260206004820152603260248201527f4552433732313a207472616e7366657220746f206e6f6e20455243373231526560448201527f63656976657220696d706c656d656e74657200000000000000000000000000006064820152608401610757565b805181602001fd5b7fffffffff00000000000000000000000000000000000000000000000000000000167f150b7a02000000000000000000000000000000000000000000000000000000001490506116e6565b506001949350505050565b60606007805461064e90612713565b6060816120bc57505060408051808201909152600181527f3000000000000000000000000000000000000000000000000000000000000000602082015290565b8160005b81156120e657806120d08161274e565b91506120df9050600a836126bc565b91506120c0565b60008167ffffffffffffffff81111561210f57634e487b7160e01b600052604160045260246000fd5b6040519080825280601f01601f191660200182016040528015612139576020820181803683370190505b5090505b84156116e65761214e6001836126d0565b915061215b600a86612787565b61216690603061267f565b60f81b81838151811061218957634e487b7160e01b600052603260045260246000fd5b60200101907effffffffffffffffffffffffffffffffffffffffffffffffffffffffffffff1916908160001a9053506121c3600a866126bc565b945061213d565b6001600160a01b0382166122205760405162461bcd60e51b815260206004820181905260248201527f4552433732313a206d696e7420746f20746865207a65726f20616464726573736044820152606401610757565b6000818152600260205260409020546001600160a01b0316156122855760405162461bcd60e51b815260206004820152601c60248201527f4552433732313a20746f6b656e20616c7265616479206d696e746564000000006044820152606401610757565b61229160008383611e55565b6001600160a01b03821660009081526003602052604081208054600192906122ba90849061267f565b909155505060008181526002602052604080822080547fffffffffffffffffffffffff0000000000000000000000000000000000000000166001600160a01b03861690811790915590518392907fddf252ad1be2c89b69c2b068fc378daa952ba7f163c4a11628f55a4df523b3ef908290a45050565b600060208284031215612341578081fd5b8135611456816127dd565b6000806040838503121561235e578081fd5b8235612369816127dd565b91506020830135612379816127dd565b809150509250929050565b600080600060608486031215612398578081fd5b83356123a3816127dd565b925060208401356123b3816127dd565b929592945050506040919091013590565b600080600080608085870312156123d9578081fd5b84356123e4816127dd565b935060208501356123f4816127dd565b925060408501359150606085013567ffffffffffffffff80821115612417578283fd5b818701915087601f83011261242a578283fd5b81358181111561243c5761243c6127c7565b604051601f8201601f19908116603f01168101908382118183101715612464576124646127c7565b816040528281528a602084870101111561247c578586fd5b82602086016020830137918201602001949094529598949750929550505050565b600080604083850312156124af578182fd5b82356124ba816127dd565b915060208301358015158114612379578182fd5b600080604083850312156124e0578182fd5b82356124eb816127dd565b946020939093013593505050565b6000806020838503121561250b578182fd5b823567ffffffffffffffff80821115612522578384fd5b818501915085601f830112612535578384fd5b813581811115612543578485fd5b8660208260051b8501011115612557578485fd5b60209290920196919550909350505050565b60006020828403121561257a578081fd5b5035919050565b600060208284031215612592578081fd5b8135611456816127f2565b6000602082840312156125ae578081fd5b8151611456816127f2565b6000602082840312156125ca578081fd5b8151611456816127dd565b600081518084526125ed8160208601602086016126e7565b601f01601f19169290920160200192915050565b600083516126138184602088016126e7565b8351908301906126278183602088016126e7565b01949350505050565b60006001600160a01b0380871683528086166020840152508360408301526080606083015261266260808301846125d5565b9695505050505050565b60208152600061145660208301846125d5565b600082198211156126925761269261279b565b500190565b600060ff821660ff84168060ff038211156126b4576126b461279b565b019392505050565b6000826126cb576126cb6127b1565b500490565b6000828210156126e2576126e261279b565b500390565b60005b838110156127025781810151838201526020016126ea565b838111156112585750506000910152565b600181811c9082168061272757607f821691505b6020821081141561274857634e487b7160e01b600052602260045260246000fd5b50919050565b60007fffffffffffffffffffffffffffffffffffffffffffffffffffffffffffffffff8214156127805761278061279b565b5060010190565b600082612796576127966127b1565b500690565b634e487b7160e01b600052601160045260246000fd5b634e487b7160e01b600052601260045260246000fd5b634e487b7160e01b600052604160045260246000fd5b6001600160a01b0381168114610cc157600080fd5b7fffffffff0000000000000000000000000000000000000000000000000000000081168114610cc157600080fdfea26469706673582212203b4c872c4d0b47f139c3faedd9fb9a68283029f8045b1e061712482504eadc7564736f6c63430008040033",
  "linkReferences": {},
  "deployedLinkReferences": {}
}