{
  "_format": "hh-sol-artifact-1",
  "contractName": "ThirstyThirstySeason01",
  "sourceName": "contracts/ThirstyThirstySeason01.sol",
  "abi": [
    {
      "inputs": [
        {
          "internalType": "string",
          "name": "_name",
          "type": "string"
        },
        {
          "internalType": "string",
          "name": "_symbol",
          "type": "string"
        },
        {
          "internalType": "string",
          "name": "_metadataURI",
          "type": "string"
        },
        {
          "internalType": "bool",
          "name": "_isMintStarted",
          "type": "bool"
        },
        {
          "internalType": "address",
          "name": "_proxyRegistryAddress",
          "type": "address"
        },
        {
          "components": [
            {
              "internalType": "uint64",
              "name": "id",
              "type": "uint64"
            },
            {
              "internalType": "uint64",
              "name": "supply",
              "type": "uint64"
            },
            {
              "internalType": "uint256",
              "name": "priceInWei",
              "type": "uint256"
            }
          ],
          "internalType": "struct ThirstyThirstySeason01.Tier",
          "name": "_tierCellar",
          "type": "tuple"
        },
        {
          "components": [
            {
              "internalType": "uint64",
              "name": "id",
              "type": "uint64"
            },
            {
              "internalType": "uint64",
              "name": "supply",
              "type": "uint64"
            },
            {
              "internalType": "uint256",
              "name": "priceInWei",
              "type": "uint256"
            }
          ],
          "internalType": "struct ThirstyThirstySeason01.Tier",
          "name": "_tierTable",
          "type": "tuple"
        },
        {
          "components": [
            {
              "internalType": "uint64",
              "name": "id",
              "type": "uint64"
            },
            {
              "internalType": "uint64",
              "name": "supply",
              "type": "uint64"
            },
            {
              "internalType": "uint256",
              "name": "priceInWei",
              "type": "uint256"
            }
          ],
          "internalType": "struct ThirstyThirstySeason01.Tier",
          "name": "_tierTableGold",
          "type": "tuple"
        },
        {
          "components": [
            {
              "internalType": "uint64",
              "name": "id",
              "type": "uint64"
            },
            {
              "internalType": "uint64",
              "name": "supply",
              "type": "uint64"
            },
            {
              "internalType": "uint256",
              "name": "priceInWei",
              "type": "uint256"
            }
          ],
          "internalType": "struct ThirstyThirstySeason01.Tier",
          "name": "_tierFrens",
          "type": "tuple"
        },
        {
          "internalType": "bytes32",
          "name": "_merkleRoot",
          "type": "bytes32"
        }
      ],
      "stateMutability": "nonpayable",
      "type": "constructor"
    },
    {
      "anonymous": false,
      "inputs": [
        {
          "indexed": true,
          "internalType": "address",
          "name": "owner",
          "type": "address"
        },
        {
          "indexed": true,
          "internalType": "address",
          "name": "approved",
          "type": "address"
        },
        {
          "indexed": true,
          "internalType": "uint256",
          "name": "tokenId",
          "type": "uint256"
        }
      ],
      "name": "Approval",
      "type": "event"
    },
    {
      "anonymous": false,
      "inputs": [
        {
          "indexed": true,
          "internalType": "address",
          "name": "owner",
          "type": "address"
        },
        {
          "indexed": true,
          "internalType": "address",
          "name": "operator",
          "type": "address"
        },
        {
          "indexed": false,
          "internalType": "bool",
          "name": "approved",
          "type": "bool"
        }
      ],
      "name": "ApprovalForAll",
      "type": "event"
    },
    {
      "anonymous": false,
      "inputs": [
        {
          "indexed": true,
          "internalType": "address",
          "name": "previousOwner",
          "type": "address"
        },
        {
          "indexed": true,
          "internalType": "address",
          "name": "newOwner",
          "type": "address"
        }
      ],
      "name": "OwnershipTransferred",
      "type": "event"
    },
    {
      "anonymous": false,
      "inputs": [
        {
          "indexed": false,
          "internalType": "address",
          "name": "account",
          "type": "address"
        }
      ],
      "name": "Paused",
      "type": "event"
    },
    {
      "anonymous": false,
      "inputs": [
        {
          "indexed": true,
          "internalType": "address",
          "name": "from",
          "type": "address"
        },
        {
          "indexed": true,
          "internalType": "address",
          "name": "to",
          "type": "address"
        },
        {
          "indexed": true,
          "internalType": "uint256",
          "name": "tokenId",
          "type": "uint256"
        }
      ],
      "name": "Transfer",
      "type": "event"
    },
    {
      "anonymous": false,
      "inputs": [
        {
          "indexed": false,
          "internalType": "address",
          "name": "account",
          "type": "address"
        }
      ],
      "name": "Unpaused",
      "type": "event"
    },
    {
      "inputs": [
        {
          "internalType": "address",
          "name": "_to",
          "type": "address"
        }
      ],
      "name": "airdrop",
      "outputs": [],
      "stateMutability": "nonpayable",
      "type": "function"
    },
    {
      "inputs": [
        {
          "internalType": "address",
          "name": "to",
          "type": "address"
        },
        {
          "internalType": "uint256",
          "name": "tokenId",
          "type": "uint256"
        }
      ],
      "name": "approve",
      "outputs": [],
      "stateMutability": "nonpayable",
      "type": "function"
    },
    {
      "inputs": [
        {
          "internalType": "address",
          "name": "owner",
          "type": "address"
        }
      ],
      "name": "balanceOf",
      "outputs": [
        {
          "internalType": "uint256",
          "name": "",
          "type": "uint256"
        }
      ],
      "stateMutability": "view",
      "type": "function"
    },
    {
      "inputs": [
        {
          "internalType": "uint256",
          "name": "tokenId",
          "type": "uint256"
        }
      ],
      "name": "getApproved",
      "outputs": [
        {
          "internalType": "address",
          "name": "",
          "type": "address"
        }
      ],
      "stateMutability": "view",
      "type": "function"
    },
    {
      "inputs": [
        {
          "internalType": "address",
          "name": "_owner",
          "type": "address"
        },
        {
          "internalType": "address",
          "name": "_operator",
          "type": "address"
        }
      ],
      "name": "isApprovedForAll",
      "outputs": [
        {
          "internalType": "bool",
          "name": "",
          "type": "bool"
        }
      ],
      "stateMutability": "view",
      "type": "function"
    },
    {
      "inputs": [],
      "name": "isMintStarted",
      "outputs": [
        {
          "internalType": "bool",
          "name": "",
          "type": "bool"
        }
      ],
      "stateMutability": "view",
      "type": "function"
    },
    {
      "inputs": [],
      "name": "merkleRoot",
      "outputs": [
        {
          "internalType": "bytes32",
          "name": "",
          "type": "bytes32"
        }
      ],
      "stateMutability": "view",
      "type": "function"
    },
    {
      "inputs": [
        {
          "internalType": "uint8",
          "name": "_tierId",
          "type": "uint8"
        }
      ],
      "name": "mint",
      "outputs": [],
      "stateMutability": "payable",
      "type": "function"
    },
    {
      "inputs": [
        {
          "internalType": "bytes32[]",
          "name": "_merkleProof",
          "type": "bytes32[]"
        }
      ],
      "name": "mintGold",
      "outputs": [],
      "stateMutability": "payable",
      "type": "function"
    },
    {
      "inputs": [],
      "name": "mintedPerTiers",
      "outputs": [
        {
          "internalType": "uint256[4]",
          "name": "",
          "type": "uint256[4]"
        }
      ],
      "stateMutability": "view",
      "type": "function"
    },
    {
      "inputs": [],
      "name": "name",
      "outputs": [
        {
          "internalType": "string",
          "name": "",
          "type": "string"
        }
      ],
      "stateMutability": "view",
      "type": "function"
    },
    {
      "inputs": [],
      "name": "nextTokenID",
      "outputs": [
        {
          "internalType": "uint256",
          "name": "",
          "type": "uint256"
        }
      ],
      "stateMutability": "view",
      "type": "function"
    },
    {
      "inputs": [],
      "name": "owner",
      "outputs": [
        {
          "internalType": "address",
          "name": "",
          "type": "address"
        }
      ],
      "stateMutability": "view",
      "type": "function"
    },
    {
      "inputs": [
        {
          "internalType": "uint256",
          "name": "tokenId",
          "type": "uint256"
        }
      ],
      "name": "ownerOf",
      "outputs": [
        {
          "internalType": "address",
          "name": "",
          "type": "address"
        }
      ],
      "stateMutability": "view",
      "type": "function"
    },
    {
      "inputs": [],
      "name": "pause",
      "outputs": [],
      "stateMutability": "nonpayable",
      "type": "function"
    },
    {
      "inputs": [],
      "name": "paused",
      "outputs": [
        {
          "internalType": "bool",
          "name": "",
          "type": "bool"
        }
      ],
      "stateMutability": "view",
      "type": "function"
    },
    {
      "inputs": [],
      "name": "proxyRegistryAddress",
      "outputs": [
        {
          "internalType": "address",
          "name": "",
          "type": "address"
        }
      ],
      "stateMutability": "view",
      "type": "function"
    },
    {
      "inputs": [],
      "name": "renounceOwnership",
      "outputs": [],
      "stateMutability": "nonpayable",
      "type": "function"
    },
    {
      "inputs": [
        {
          "internalType": "address",
          "name": "from",
          "type": "address"
        },
        {
          "internalType": "address",
          "name": "to",
          "type": "address"
        },
        {
          "internalType": "uint256",
          "name": "tokenId",
          "type": "uint256"
        }
      ],
      "name": "safeTransferFrom",
      "outputs": [],
      "stateMutability": "nonpayable",
      "type": "function"
    },
    {
      "inputs": [
        {
          "internalType": "address",
          "name": "from",
          "type": "address"
        },
        {
          "internalType": "address",
          "name": "to",
          "type": "address"
        },
        {
          "internalType": "uint256",
          "name": "tokenId",
          "type": "uint256"
        },
        {
          "internalType": "bytes",
          "name": "_data",
          "type": "bytes"
        }
      ],
      "name": "safeTransferFrom",
      "outputs": [],
      "stateMutability": "nonpayable",
      "type": "function"
    },
    {
      "inputs": [
        {
          "internalType": "address",
          "name": "operator",
          "type": "address"
        },
        {
          "internalType": "bool",
          "name": "approved",
          "type": "bool"
        }
      ],
      "name": "setApprovalForAll",
      "outputs": [],
      "stateMutability": "nonpayable",
      "type": "function"
    },
    {
      "inputs": [
        {
          "internalType": "bytes32",
          "name": "_merkleRoot",
          "type": "bytes32"
        }
      ],
      "name": "setMerkleRoot",
      "outputs": [],
      "stateMutability": "nonpayable",
      "type": "function"
    },
    {
      "inputs": [
        {
          "internalType": "bool",
          "name": "_started",
          "type": "bool"
        }
      ],
      "name": "setMintStarted",
      "outputs": [],
      "stateMutability": "nonpayable",
      "type": "function"
    },
    {
      "inputs": [
        {
          "internalType": "address",
          "name": "_proxyRegistryAddress",
          "type": "address"
        }
      ],
      "name": "setProxyRegistryAddress",
      "outputs": [],
      "stateMutability": "nonpayable",
      "type": "function"
    },
    {
      "inputs": [
        {
          "internalType": "bytes4",
          "name": "interfaceId",
          "type": "bytes4"
        }
      ],
      "name": "supportsInterface",
      "outputs": [
        {
          "internalType": "bool",
          "name": "",
          "type": "bool"
        }
      ],
      "stateMutability": "view",
      "type": "function"
    },
    {
      "inputs": [],
      "name": "symbol",
      "outputs": [
        {
          "internalType": "string",
          "name": "",
          "type": "string"
        }
      ],
      "stateMutability": "view",
      "type": "function"
    },
    {
      "inputs": [
        {
          "internalType": "uint256",
          "name": "_tokenId",
          "type": "uint256"
        }
      ],
      "name": "tokenURI",
      "outputs": [
        {
          "internalType": "string",
          "name": "",
          "type": "string"
        }
      ],
      "stateMutability": "view",
      "type": "function"
    },
    {
      "inputs": [],
      "name": "totalMinted",
      "outputs": [
        {
          "internalType": "uint256",
          "name": "",
          "type": "uint256"
        }
      ],
      "stateMutability": "view",
      "type": "function"
    },
    {
      "inputs": [
        {
          "internalType": "address",
          "name": "from",
          "type": "address"
        },
        {
          "internalType": "address",
          "name": "to",
          "type": "address"
        },
        {
          "internalType": "uint256",
          "name": "tokenId",
          "type": "uint256"
        }
      ],
      "name": "transferFrom",
      "outputs": [],
      "stateMutability": "nonpayable",
      "type": "function"
    },
    {
      "inputs": [
        {
          "internalType": "address",
          "name": "newOwner",
          "type": "address"
        }
      ],
      "name": "transferOwnership",
      "outputs": [],
      "stateMutability": "nonpayable",
      "type": "function"
    },
    {
      "inputs": [],
      "name": "unpause",
      "outputs": [],
      "stateMutability": "nonpayable",
      "type": "function"
    },
    {
      "inputs": [],
      "name": "withdraw",
      "outputs": [],
      "stateMutability": "nonpayable",
      "type": "function"
    }
  ],
  "bytecode": "0x60806040523480156200001157600080fd5b5060405162003747380380620037478339810160408190526200003491620003f3565b89518a908a906200004d90600090602085019062000208565b5080516200006390600190602084019062000208565b505050620000806200007a620001a960201b60201c565b620001ad565b6006805460ff60a01b19169055600a80548651600e80546020808b01516001600160401b039485166001600160801b031993841617680100000000000000009186168202179093556040808c0151600f558a51601080548d8501519288169086161791871686029190911790558a8101516011558951601280548c850151928816908616179187168602919091179055898101516013558851601480548b850151928816951694909417951690930293909317905585015160155560098490556001600160a81b0319909116891515610100600160a81b031916176101006001600160a01b038a16021790915588516200018191600891908b019062000208565b50620001996007620001ff60201b62001e191760201c565b5050505050505050505062000588565b3390565b600680546001600160a01b038381166001600160a01b0319831681179093556040519116919082907f8be0079c531659141344cd1fd0a4f28419497f9722a3daafe3b4186f6b6457e090600090a35050565b80546001019055565b828054620002169062000535565b90600052602060002090601f0160209004810192826200023a576000855562000285565b82601f106200025557805160ff191683800117855562000285565b8280016001018555821562000285579182015b828111156200028557825182559160200191906001019062000268565b506200029392915062000297565b5090565b5b8082111562000293576000815560010162000298565b80516001600160a01b0381168114620002c657600080fd5b919050565b80518015158114620002c657600080fd5b600082601f830112620002ed578081fd5b81516001600160401b0381111562000309576200030962000572565b60206200031f601f8301601f1916820162000502565b828152858284870101111562000333578384fd5b835b838110156200035257858101830151828201840152820162000335565b838111156200036357848385840101525b5095945050505050565b6000606082840312156200037f578081fd5b604051606081016001600160401b0381118282101715620003a457620003a462000572565b604052905080620003b583620003db565b8152620003c560208401620003db565b6020820152604083015160408201525092915050565b80516001600160401b0381168114620002c657600080fd5b6000806000806000806000806000806102408b8d03121562000413578586fd5b8a516001600160401b03808211156200042a578788fd5b620004388e838f01620002dc565b9b5060208d01519150808211156200044e578788fd5b6200045c8e838f01620002dc565b9a5060408d015191508082111562000472578788fd5b50620004818d828e01620002dc565b9850506200049260608c01620002cb565b9650620004a260808c01620002ae565b9550620004b38c60a08d016200036d565b9450620004c58c6101008d016200036d565b9350620004d78c6101608d016200036d565b9250620004e98c6101c08d016200036d565b91506102208b015190509295989b9194979a5092959850565b604051601f8201601f191681016001600160401b03811182821017156200052d576200052d62000572565b604052919050565b600181811c908216806200054a57607f821691505b602082108114156200056c57634e487b7160e01b600052602260045260246000fd5b50919050565b634e487b7160e01b600052604160045260246000fd5b6131af80620005986000396000f3fe6080604052600436106101e35760003560e01c806370a0823111610102578063b88d4fde11610095578063e985e9c511610064578063e985e9c51461053d578063ef286e801461055d578063f101e4811461057f578063f2fde38b1461059457600080fd5b8063b88d4fde146104b8578063c87b56dd146104d8578063cd7c0326146104f8578063d26ea6c01461051d57600080fd5b80638da5cb5b116100d15780638da5cb5b1461045057806395d89b411461046e578063a22cb46514610483578063a2309ff8146104a357600080fd5b806370a08231146103e6578063715018a6146104065780637cb647591461041b5780638456cb591461043b57600080fd5b80632eb4a7ab1161017a5780635c975abb116101495780635c975abb146103745780636352211e1461039357806365c6df3a146103b35780636ecd2306146103d357600080fd5b80632eb4a7ab146103065780633ccfd60b1461032a5780633f4ba83a1461033f57806342842e0e1461035457600080fd5b80630b23d670116101b65780630b23d670146102995780631869e7d4146102ac57806321860a05146102c657806323b872dd146102e657600080fd5b806301ffc9a7146101e857806306fdde031461021d578063081812fc1461023f578063095ea7b314610277575b600080fd5b3480156101f457600080fd5b50610208610203366004612e49565b6105b4565b60405190151581526020015b60405180910390f35b34801561022957600080fd5b50610232610699565b6040516102149190612fc7565b34801561024b57600080fd5b5061025f61025a366004612e31565b61072b565b6040516001600160a01b039091168152602001610214565b34801561028357600080fd5b50610297610292366004612d7c565b6107d6565b005b6102976102a7366004612da7565b610908565b3480156102b857600080fd5b50600a546102089060ff1681565b3480156102d257600080fd5b506102976102e1366004612bdb565b610d12565b3480156102f257600080fd5b50610297610301366004612c2f565b610f9a565b34801561031257600080fd5b5061031c60095481565b604051908152602001610214565b34801561033657600080fd5b50610297611021565b34801561034b57600080fd5b50610297611115565b34801561036057600080fd5b5061029761036f366004612c2f565b611179565b34801561038057600080fd5b50600654600160a01b900460ff16610208565b34801561039f57600080fd5b5061025f6103ae366004612e31565b611194565b3480156103bf57600080fd5b506102976103ce366004612e17565b61121f565b6102976103e1366004612e9d565b611304565b3480156103f257600080fd5b5061031c610401366004612bdb565b6116ee565b34801561041257600080fd5b50610297611788565b34801561042757600080fd5b50610297610436366004612e31565b6117ec565b34801561044757600080fd5b506102976118a5565b34801561045c57600080fd5b506006546001600160a01b031661025f565b34801561047a57600080fd5b50610232611907565b34801561048f57600080fd5b5061029761049e366004612d48565b611916565b3480156104af57600080fd5b5061031c611921565b3480156104c457600080fd5b506102976104d3366004612c6f565b61193d565b3480156104e457600080fd5b506102326104f3366004612e31565b6119c5565b34801561050457600080fd5b50600a5461025f9061010090046001600160a01b031681565b34801561052957600080fd5b50610297610538366004612bdb565b611a75565b34801561054957600080fd5b50610208610558366004612bf7565b611b68565b34801561056957600080fd5b50610572611c6d565b6040516102149190612f96565b34801561058b57600080fd5b5061031c611d2c565b3480156105a057600080fd5b506102976105af366004612bdb565b611d37565b60007fffffffff0000000000000000000000000000000000000000000000000000000082167f80ac58cd00000000000000000000000000000000000000000000000000000000148061064757507fffffffff0000000000000000000000000000000000000000000000000000000082167f5b5e139f00000000000000000000000000000000000000000000000000000000145b8061069357507f01ffc9a7000000000000000000000000000000000000000000000000000000007fffffffff000000000000000000000000000000000000000000000000000000008316145b92915050565b6060600080546106a89061306c565b80601f01602080910402602001604051908101604052809291908181526020018280546106d49061306c565b80156107215780601f106106f657610100808354040283529160200191610721565b820191906000526020600020905b81548152906001019060200180831161070457829003601f168201915b5050505050905090565b6000818152600260205260408120546001600160a01b03166107ba5760405162461bcd60e51b815260206004820152602c60248201527f4552433732313a20617070726f76656420717565727920666f72206e6f6e657860448201527f697374656e7420746f6b656e000000000000000000000000000000000000000060648201526084015b60405180910390fd5b506000908152600460205260409020546001600160a01b031690565b60006107e182611194565b9050806001600160a01b0316836001600160a01b0316141561086b5760405162461bcd60e51b815260206004820152602160248201527f4552433732313a20617070726f76616c20746f2063757272656e74206f776e6560448201527f720000000000000000000000000000000000000000000000000000000000000060648201526084016107b1565b336001600160a01b038216148061088757506108878133611b68565b6108f95760405162461bcd60e51b815260206004820152603860248201527f4552433732313a20617070726f76652063616c6c6572206973206e6f74206f7760448201527f6e6572206e6f7220617070726f76656420666f7220616c6c000000000000000060648201526084016107b1565b6109038383611e22565b505050565b600654600160a01b900460ff16156109625760405162461bcd60e51b815260206004820152601060248201527f5061757361626c653a207061757365640000000000000000000000000000000060448201526064016107b1565b336000908152600c6020526040902054600667ffffffffffffffff909116106109cd5760405162461bcd60e51b815260206004820152601560248201527f4e6f206d6f7265206d696e7420666f722075736572000000000000000000000060448201526064016107b1565b600954610a1c5760405162461bcd60e51b815260206004820152601360248201527f4d65726b6c6520726f6f74206e6f74207365740000000000000000000000000060448201526064016107b1565b336000908152600c602052604090205467ffffffffffffffff1615610a835760405162461bcd60e51b815260206004820152601b60248201527f416464726573732068617320616c726561647920636c61696d6564000000000060448201526064016107b1565b6040517fffffffffffffffffffffffffffffffffffffffff0000000000000000000000003360601b166020820152600090603401604051602081830303815290604052805190602001209050610b10838380806020026020016040519081016040528093929190818152602001838360200280828437600092019190915250506009549150849050611ea8565b610b5c5760405162461bcd60e51b815260206004820152601760248201527f41646472657373206e6f7420696e20676f6c646c69737400000000000000000060448201526064016107b1565b60125467ffffffffffffffff8082166000908152600b6020526040902054680100000000000000009092041611610bd55760405162461bcd60e51b815260206004820152601360248201527f536f6c64206f75742028676f6c646c697374290000000000000000000000000060448201526064016107b1565b601354341015610c275760405162461bcd60e51b815260206004820152600f60248201527f4e6f7420656e6f7567682066756e64000000000000000000000000000000000060448201526064016107b1565b6000610c3260075490565b336000908152600c602052604081208054929350600192909190610c6190849067ffffffffffffffff16612ff2565b82546101009290920a67ffffffffffffffff818102199093169183160217909155601254166000908152600b60205260408120805460019350909190610ca8908490612fda565b90915550506012546000828152600d6020526040902080547fffffffffffffffffffffffffffffffffffffffffffffffff00000000000000001667ffffffffffffffff909216919091179055610d02600780546001019055565b610d0c3382611ebe565b50505050565b6006546001600160a01b03163314610d6c5760405162461bcd60e51b815260206004820181905260248201527f4f776e61626c653a2063616c6c6572206973206e6f7420746865206f776e657260448201526064016107b1565b600654600160a01b900460ff1615610dc65760405162461bcd60e51b815260206004820152601060248201527f5061757361626c653a207061757365640000000000000000000000000000000060448201526064016107b1565b6001600160a01b0381166000908152600c6020526040902054600667ffffffffffffffff90911610610e3a5760405162461bcd60e51b815260206004820152601560248201527f4e6f206d6f7265206d696e7420666f722075736572000000000000000000000060448201526064016107b1565b6000610e4560075490565b60145467ffffffffffffffff8082166000908152600b6020526040902054929350680100000000000000009091041611610ec15760405162461bcd60e51b815260206004820152601260248201527f536f6c64206f7574202861697264726f7029000000000000000000000000000060448201526064016107b1565b336000908152600c60205260408120805460019290610eeb90849067ffffffffffffffff16612ff2565b82546101009290920a67ffffffffffffffff818102199093169183160217909155601454166000908152600b60205260408120805460019350909190610f32908490612fda565b90915550506014546000828152600d6020526040902080547fffffffffffffffffffffffffffffffffffffffffffffffff00000000000000001667ffffffffffffffff909216919091179055610f8c600780546001019055565b610f968282611ebe565b5050565b610fa43382611ed8565b6110165760405162461bcd60e51b815260206004820152603160248201527f4552433732313a207472616e736665722063616c6c6572206973206e6f74206f60448201527f776e6572206e6f7220617070726f76656400000000000000000000000000000060648201526084016107b1565b610903838383611fc0565b6006546001600160a01b0316331461107b5760405162461bcd60e51b815260206004820181905260248201527f4f776e61626c653a2063616c6c6572206973206e6f7420746865206f776e657260448201526064016107b1565b6040514790600090339083908381818185875af1925050503d80600081146110bf576040519150601f19603f3d011682016040523d82523d6000602084013e6110c4565b606091505b5050905080610f965760405162461bcd60e51b815260206004820152600f60248201527f5769746864726177206661696c6564000000000000000000000000000000000060448201526064016107b1565b6006546001600160a01b0316331461116f5760405162461bcd60e51b815260206004820181905260248201527f4f776e61626c653a2063616c6c6572206973206e6f7420746865206f776e657260448201526064016107b1565b6111776121b0565b565b6109038383836040518060200160405280600081525061193d565b6000818152600260205260408120546001600160a01b0316806106935760405162461bcd60e51b815260206004820152602960248201527f4552433732313a206f776e657220717565727920666f72206e6f6e657869737460448201527f656e7420746f6b656e000000000000000000000000000000000000000000000060648201526084016107b1565b6006546001600160a01b031633146112795760405162461bcd60e51b815260206004820181905260248201527f4f776e61626c653a2063616c6c6572206973206e6f7420746865206f776e657260448201526064016107b1565b600654600160a01b900460ff16156112d35760405162461bcd60e51b815260206004820152601060248201527f5061757361626c653a207061757365640000000000000000000000000000000060448201526064016107b1565b600a80547fffffffffffffffffffffffffffffffffffffffffffffffffffffffffffffff0016911515919091179055565b600654600160a01b900460ff161561135e5760405162461bcd60e51b815260206004820152601060248201527f5061757361626c653a207061757365640000000000000000000000000000000060448201526064016107b1565b600a5460ff1615156001146113b55760405162461bcd60e51b815260206004820152600f60248201527f4e6f74207965742073746172746564000000000000000000000000000000000060448201526064016107b1565b336000908152600c6020526040902054600667ffffffffffffffff909116106114205760405162461bcd60e51b815260206004820152601560248201527f4e6f206d6f7265206d696e7420666f722075736572000000000000000000000060448201526064016107b1565b600061142b60075490565b600e5490915067ffffffffffffffff1660ff83161480611459575060105467ffffffffffffffff1660ff8316145b6114a55760405162461bcd60e51b815260206004820152600c60248201527f556e6b6e6f776e2074696572000000000000000000000000000000000000000060448201526064016107b1565b60408051606081018252600080825260208201819052918101919091528260ff166001141561150c575060408051606081018252600e5467ffffffffffffffff808216835268010000000000000000909104166020820152600f5491810191909152611546565b506040805160608101825260105467ffffffffffffffff808216835268010000000000000000909104166020820152601154918101919091525b806020015167ffffffffffffffff16600b60008560ff1667ffffffffffffffff16815260200190815260200160002054106115c35760405162461bcd60e51b815260206004820152600860248201527f536f6c64206f757400000000000000000000000000000000000000000000000060448201526064016107b1565b80604001513410156116175760405162461bcd60e51b815260206004820152600f60248201527f4e6f7420656e6f7567682066756e64000000000000000000000000000000000060448201526064016107b1565b336000908152600c6020526040812080546001929061164190849067ffffffffffffffff16612ff2565b92506101000a81548167ffffffffffffffff021916908367ffffffffffffffff1602179055506001600b60008560ff1667ffffffffffffffff16815260200190815260200160002060008282546116989190612fda565b90915550506000828152600d6020526040902080547fffffffffffffffffffffffffffffffffffffffffffffffff00000000000000001660ff85161790556116e4600780546001019055565b6109033383611ebe565b60006001600160a01b03821661176c5760405162461bcd60e51b815260206004820152602a60248201527f4552433732313a2062616c616e636520717565727920666f7220746865207a6560448201527f726f20616464726573730000000000000000000000000000000000000000000060648201526084016107b1565b506001600160a01b031660009081526003602052604090205490565b6006546001600160a01b031633146117e25760405162461bcd60e51b815260206004820181905260248201527f4f776e61626c653a2063616c6c6572206973206e6f7420746865206f776e657260448201526064016107b1565b6111776000612271565b6006546001600160a01b031633146118465760405162461bcd60e51b815260206004820181905260248201527f4f776e61626c653a2063616c6c6572206973206e6f7420746865206f776e657260448201526064016107b1565b600654600160a01b900460ff16156118a05760405162461bcd60e51b815260206004820152601060248201527f5061757361626c653a207061757365640000000000000000000000000000000060448201526064016107b1565b600955565b6006546001600160a01b031633146118ff5760405162461bcd60e51b815260206004820181905260248201527f4f776e61626c653a2063616c6c6572206973206e6f7420746865206f776e657260448201526064016107b1565b6111776122db565b6060600180546106a89061306c565b610f9633838361238b565b6000600161192e60075490565b6119389190613029565b905090565b6119473383611ed8565b6119b95760405162461bcd60e51b815260206004820152603160248201527f4552433732313a207472616e736665722063616c6c6572206973206e6f74206f60448201527f776e6572206e6f7220617070726f76656400000000000000000000000000000060648201526084016107b1565b610d0c84848484612478565b6000818152600260205260409020546060906001600160a01b0316611a2c5760405162461bcd60e51b815260206004820152601f60248201527f55524920717565727920666f72206e6f6e6578697374656e7420746f6b656e0060448201526064016107b1565b6000828152600d602052604090205467ffffffffffffffff16611a4e81612501565b604051602001611a5e9190612f19565b604051602081830303815290604052915050919050565b6006546001600160a01b03163314611acf5760405162461bcd60e51b815260206004820181905260248201527f4f776e61626c653a2063616c6c6572206973206e6f7420746865206f776e657260448201526064016107b1565b600654600160a01b900460ff1615611b295760405162461bcd60e51b815260206004820152601060248201527f5061757361626c653a207061757365640000000000000000000000000000000060448201526064016107b1565b600a80546001600160a01b03909216610100027fffffffffffffffffffffff0000000000000000000000000000000000000000ff909216919091179055565b600a5460009061010090046001600160a01b031615611c3c57600a546040517fc45527910000000000000000000000000000000000000000000000000000000081526001600160a01b038581166004830152610100909204821691841690829063c45527919060240160206040518083038186803b158015611be957600080fd5b505afa158015611bfd573d6000803e3d6000fd5b505050506040513d601f19601f82011682018060405250810190611c219190612e81565b6001600160a01b03161415611c3a576001915050610693565b505b6001600160a01b0380841660009081526005602090815260408083209386168352929052205460ff165b9392505050565b611c75612ba8565b50604080516080810182527f72c6bfb7988af3a1efa6568f02a999bc52252641c659d85961ca3d372b57d5cf5481527fa50eece07c7db1631545c0069bd8f5f54d5935e215d59097edf258a44ba91634546020808301919091527f64c15cc42be7899b001f818cf4433057002112c418d1d3a67cd5cb453051d33e54928201929092526004600052600b9091527f12d0c11577e2f0950f57c455c117796550b79f444811db8ba2f69c57b646c78454606082015290565b600061193860075490565b6006546001600160a01b03163314611d915760405162461bcd60e51b815260206004820181905260248201527f4f776e61626c653a2063616c6c6572206973206e6f7420746865206f776e657260448201526064016107b1565b6001600160a01b038116611e0d5760405162461bcd60e51b815260206004820152602660248201527f4f776e61626c653a206e6577206f776e657220697320746865207a65726f206160448201527f646472657373000000000000000000000000000000000000000000000000000060648201526084016107b1565b611e1681612271565b50565b80546001019055565b600081815260046020526040902080547fffffffffffffffffffffffff0000000000000000000000000000000000000000166001600160a01b0384169081179091558190611e6f82611194565b6001600160a01b03167f8c5be1e5ebec7d5bd14f71427d1e84f3dd0314c0f7b2291e5b200ac8c7c3b92560405160405180910390a45050565b600082611eb585846125d3565b14949350505050565b610f96828260405180602001604052806000815250612655565b6000818152600260205260408120546001600160a01b0316611f625760405162461bcd60e51b815260206004820152602c60248201527f4552433732313a206f70657261746f7220717565727920666f72206e6f6e657860448201527f697374656e7420746f6b656e000000000000000000000000000000000000000060648201526084016107b1565b6000611f6d83611194565b9050806001600160a01b0316846001600160a01b03161480611fa85750836001600160a01b0316611f9d8461072b565b6001600160a01b0316145b80611fb85750611fb88185611b68565b949350505050565b826001600160a01b0316611fd382611194565b6001600160a01b03161461204f5760405162461bcd60e51b815260206004820152602560248201527f4552433732313a207472616e736665722066726f6d20696e636f72726563742060448201527f6f776e657200000000000000000000000000000000000000000000000000000060648201526084016107b1565b6001600160a01b0382166120ca5760405162461bcd60e51b8152602060048201526024808201527f4552433732313a207472616e7366657220746f20746865207a65726f2061646460448201527f726573730000000000000000000000000000000000000000000000000000000060648201526084016107b1565b6120d58383836126de565b6120e0600082611e22565b6001600160a01b0383166000908152600360205260408120805460019290612109908490613029565b90915550506001600160a01b0382166000908152600360205260408120805460019290612137908490612fda565b909155505060008181526002602052604080822080547fffffffffffffffffffffffff0000000000000000000000000000000000000000166001600160a01b0386811691821790925591518493918716917fddf252ad1be2c89b69c2b068fc378daa952ba7f163c4a11628f55a4df523b3ef91a4505050565b600654600160a01b900460ff166122095760405162461bcd60e51b815260206004820152601460248201527f5061757361626c653a206e6f742070617573656400000000000000000000000060448201526064016107b1565b600680547fffffffffffffffffffffff00ffffffffffffffffffffffffffffffffffffffff1690557f5db9ee0a495bf2e6ff9c91a7834c1ba4fdd244a5e8aa4e537bd38aeae4b073aa335b6040516001600160a01b03909116815260200160405180910390a1565b600680546001600160a01b038381167fffffffffffffffffffffffff0000000000000000000000000000000000000000831681179093556040519116919082907f8be0079c531659141344cd1fd0a4f28419497f9722a3daafe3b4186f6b6457e090600090a35050565b600654600160a01b900460ff16156123355760405162461bcd60e51b815260206004820152601060248201527f5061757361626c653a207061757365640000000000000000000000000000000060448201526064016107b1565b600680547fffffffffffffffffffffff00ffffffffffffffffffffffffffffffffffffffff16600160a01b1790557f62e78cea01bee320cd4e420270b5ea74000d11b0c9f74754ebdbfc544b05a2586122543390565b816001600160a01b0316836001600160a01b031614156123ed5760405162461bcd60e51b815260206004820152601960248201527f4552433732313a20617070726f766520746f2063616c6c65720000000000000060448201526064016107b1565b6001600160a01b0383811660008181526005602090815260408083209487168084529482529182902080547fffffffffffffffffffffffffffffffffffffffffffffffffffffffffffffff001686151590811790915591519182527f17307eab39ab6107e8899845ad3d59bd9653f200f220920489ca2b5937696c31910160405180910390a3505050565b612483848484611fc0565b61248f84848484612738565b610d0c5760405162461bcd60e51b815260206004820152603260248201527f4552433732313a207472616e7366657220746f206e6f6e20455243373231526560448201527f63656976657220696d706c656d656e746572000000000000000000000000000060648201526084016107b1565b6000818152600260205260409020546060906001600160a01b031661258e5760405162461bcd60e51b815260206004820152602f60248201527f4552433732314d657461646174613a2055524920717565727920666f72206e6f60448201527f6e6578697374656e7420746f6b656e000000000000000000000000000000000060648201526084016107b1565b60006125986128e5565b905060008151116125b85760405180602001604052806000815250611c66565b806125c2846128f4565b604051602001611a5e929190612eea565b600081815b845181101561264d57600085828151811061260357634e487b7160e01b600052603260045260246000fd5b60200260200101519050808311612629576000838152602082905260409020925061263a565b600081815260208490526040902092505b5080612645816130a7565b9150506125d8565b509392505050565b61265f8383612a42565b61266c6000848484612738565b6109035760405162461bcd60e51b815260206004820152603260248201527f4552433732313a207472616e7366657220746f206e6f6e20455243373231526560448201527f63656976657220696d706c656d656e746572000000000000000000000000000060648201526084016107b1565b600654600160a01b900460ff16156109035760405162461bcd60e51b815260206004820152601060248201527f5061757361626c653a207061757365640000000000000000000000000000000060448201526064016107b1565b60006001600160a01b0384163b156128da576040517f150b7a020000000000000000000000000000000000000000000000000000000081526001600160a01b0385169063150b7a0290612795903390899088908890600401612f5a565b602060405180830381600087803b1580156127af57600080fd5b505af19250505080156127df575060408051601f3d908101601f191682019092526127dc91810190612e65565b60015b61288f573d80801561280d576040519150601f19603f3d011682016040523d82523d6000602084013e612812565b606091505b5080516128875760405162461bcd60e51b815260206004820152603260248201527f4552433732313a207472616e7366657220746f206e6f6e20455243373231526560448201527f63656976657220696d706c656d656e746572000000000000000000000000000060648201526084016107b1565b805181602001fd5b7fffffffff00000000000000000000000000000000000000000000000000000000167f150b7a0200000000000000000000000000000000000000000000000000000000149050611fb8565b506001949350505050565b6060600880546106a89061306c565b60608161293457505060408051808201909152600181527f3000000000000000000000000000000000000000000000000000000000000000602082015290565b8160005b811561295e5780612948816130a7565b91506129579050600a83613015565b9150612938565b60008167ffffffffffffffff81111561298757634e487b7160e01b600052604160045260246000fd5b6040519080825280601f01601f1916602001820160405280156129b1576020820181803683370190505b5090505b8415611fb8576129c6600183613029565b91506129d3600a866130e0565b6129de906030612fda565b60f81b818381518110612a0157634e487b7160e01b600052603260045260246000fd5b60200101907effffffffffffffffffffffffffffffffffffffffffffffffffffffffffffff1916908160001a905350612a3b600a86613015565b94506129b5565b6001600160a01b038216612a985760405162461bcd60e51b815260206004820181905260248201527f4552433732313a206d696e7420746f20746865207a65726f206164647265737360448201526064016107b1565b6000818152600260205260409020546001600160a01b031615612afd5760405162461bcd60e51b815260206004820152601c60248201527f4552433732313a20746f6b656e20616c7265616479206d696e7465640000000060448201526064016107b1565b612b09600083836126de565b6001600160a01b0382166000908152600360205260408120805460019290612b32908490612fda565b909155505060008181526002602052604080822080547fffffffffffffffffffffffff0000000000000000000000000000000000000000166001600160a01b03861690811790915590518392907fddf252ad1be2c89b69c2b068fc378daa952ba7f163c4a11628f55a4df523b3ef908290a45050565b60405180608001604052806004906020820280368337509192915050565b80358015158114612bd657600080fd5b919050565b600060208284031215612bec578081fd5b8135611c6681613136565b60008060408385031215612c09578081fd5b8235612c1481613136565b91506020830135612c2481613136565b809150509250929050565b600080600060608486031215612c43578081fd5b8335612c4e81613136565b92506020840135612c5e81613136565b929592945050506040919091013590565b60008060008060808587031215612c84578081fd5b8435612c8f81613136565b93506020850135612c9f81613136565b925060408501359150606085013567ffffffffffffffff80821115612cc2578283fd5b818701915087601f830112612cd5578283fd5b813581811115612ce757612ce7613120565b604051601f8201601f19908116603f01168101908382118183101715612d0f57612d0f613120565b816040528281528a6020848701011115612d27578586fd5b82602086016020830137918201602001949094529598949750929550505050565b60008060408385031215612d5a578182fd5b8235612d6581613136565b9150612d7360208401612bc6565b90509250929050565b60008060408385031215612d8e578182fd5b8235612d9981613136565b946020939093013593505050565b60008060208385031215612db9578182fd5b823567ffffffffffffffff80821115612dd0578384fd5b818501915085601f830112612de3578384fd5b813581811115612df1578485fd5b8660208260051b8501011115612e05578485fd5b60209290920196919550909350505050565b600060208284031215612e28578081fd5b611c6682612bc6565b600060208284031215612e42578081fd5b5035919050565b600060208284031215612e5a578081fd5b8135611c668161314b565b600060208284031215612e76578081fd5b8151611c668161314b565b600060208284031215612e92578081fd5b8151611c6681613136565b600060208284031215612eae578081fd5b813560ff81168114611c66578182fd5b60008151808452612ed6816020860160208601613040565b601f01601f19169290920160200192915050565b60008351612efc818460208801613040565b835190830190612f10818360208801613040565b01949350505050565b60008251612f2b818460208701613040565b7f2e6a736f6e000000000000000000000000000000000000000000000000000000920191825250600501919050565b60006001600160a01b03808716835280861660208401525083604083015260806060830152612f8c6080830184612ebe565b9695505050505050565b60808101818360005b6004811015612fbe578151835260209283019290910190600101612f9f565b50505092915050565b602081526000611c666020830184612ebe565b60008219821115612fed57612fed6130f4565b500190565b600067ffffffffffffffff808316818516808303821115612f1057612f106130f4565b6000826130245761302461310a565b500490565b60008282101561303b5761303b6130f4565b500390565b60005b8381101561305b578181015183820152602001613043565b83811115610d0c5750506000910152565b600181811c9082168061308057607f821691505b602082108114156130a157634e487b7160e01b600052602260045260246000fd5b50919050565b60007fffffffffffffffffffffffffffffffffffffffffffffffffffffffffffffffff8214156130d9576130d96130f4565b5060010190565b6000826130ef576130ef61310a565b500690565b634e487b7160e01b600052601160045260246000fd5b634e487b7160e01b600052601260045260246000fd5b634e487b7160e01b600052604160045260246000fd5b6001600160a01b0381168114611e1657600080fd5b7fffffffff0000000000000000000000000000000000000000000000000000000081168114611e1657600080fdfea2646970667358221220f6d7a7f1acc6077d1b1233a3bb7be045a5c5bb0a57cccc83e091aada08db787964736f6c63430008040033",
  "linkReferences": {},
  "deployedLinkReferences": {}
}