{
  "_format": "hh-sol-artifact-1",
  "contractName": "ThirstyThirstySeason01",
  "sourceName": "contracts/ThirstyThirstySeason01.sol",
  "abi": [
    {
      "inputs": [
        {
          "internalType": "string",
          "name": "_name",
          "type": "string"
        },
        {
          "internalType": "string",
          "name": "_symbol",
          "type": "string"
        },
        {
          "internalType": "string",
          "name": "_metadataURI",
          "type": "string"
        },
        {
          "internalType": "address",
          "name": "_proxyRegistryAddress",
          "type": "address"
        },
        {
          "internalType": "uint256",
          "name": "_maxSupply",
          "type": "uint256"
        },
        {
          "internalType": "uint256",
          "name": "_mintPriceInWei",
          "type": "uint256"
        },
        {
          "internalType": "bytes32",
          "name": "_merkleRoot",
          "type": "bytes32"
        }
      ],
      "stateMutability": "nonpayable",
      "type": "constructor"
    },
    {
      "anonymous": false,
      "inputs": [
        {
          "indexed": true,
          "internalType": "address",
          "name": "owner",
          "type": "address"
        },
        {
          "indexed": true,
          "internalType": "address",
          "name": "approved",
          "type": "address"
        },
        {
          "indexed": true,
          "internalType": "uint256",
          "name": "tokenId",
          "type": "uint256"
        }
      ],
      "name": "Approval",
      "type": "event"
    },
    {
      "anonymous": false,
      "inputs": [
        {
          "indexed": true,
          "internalType": "address",
          "name": "owner",
          "type": "address"
        },
        {
          "indexed": true,
          "internalType": "address",
          "name": "operator",
          "type": "address"
        },
        {
          "indexed": false,
          "internalType": "bool",
          "name": "approved",
          "type": "bool"
        }
      ],
      "name": "ApprovalForAll",
      "type": "event"
    },
    {
      "anonymous": false,
      "inputs": [
        {
          "indexed": true,
          "internalType": "address",
          "name": "previousOwner",
          "type": "address"
        },
        {
          "indexed": true,
          "internalType": "address",
          "name": "newOwner",
          "type": "address"
        }
      ],
      "name": "OwnershipTransferred",
      "type": "event"
    },
    {
      "anonymous": false,
      "inputs": [
        {
          "indexed": false,
          "internalType": "address",
          "name": "account",
          "type": "address"
        }
      ],
      "name": "Paused",
      "type": "event"
    },
    {
      "anonymous": false,
      "inputs": [
        {
          "indexed": true,
          "internalType": "address",
          "name": "from",
          "type": "address"
        },
        {
          "indexed": true,
          "internalType": "address",
          "name": "to",
          "type": "address"
        },
        {
          "indexed": true,
          "internalType": "uint256",
          "name": "tokenId",
          "type": "uint256"
        }
      ],
      "name": "Transfer",
      "type": "event"
    },
    {
      "anonymous": false,
      "inputs": [
        {
          "indexed": false,
          "internalType": "address",
          "name": "account",
          "type": "address"
        }
      ],
      "name": "Unpaused",
      "type": "event"
    },
    {
      "inputs": [
        {
          "internalType": "address",
          "name": "to",
          "type": "address"
        },
        {
          "internalType": "uint256",
          "name": "tokenId",
          "type": "uint256"
        }
      ],
      "name": "approve",
      "outputs": [],
      "stateMutability": "nonpayable",
      "type": "function"
    },
    {
      "inputs": [
        {
          "internalType": "address",
          "name": "owner",
          "type": "address"
        }
      ],
      "name": "balanceOf",
      "outputs": [
        {
          "internalType": "uint256",
          "name": "",
          "type": "uint256"
        }
      ],
      "stateMutability": "view",
      "type": "function"
    },
    {
      "inputs": [
        {
          "internalType": "uint256",
          "name": "tokenId",
          "type": "uint256"
        }
      ],
      "name": "getApproved",
      "outputs": [
        {
          "internalType": "address",
          "name": "",
          "type": "address"
        }
      ],
      "stateMutability": "view",
      "type": "function"
    },
    {
      "inputs": [
        {
          "internalType": "address",
          "name": "_owner",
          "type": "address"
        },
        {
          "internalType": "address",
          "name": "_operator",
          "type": "address"
        }
      ],
      "name": "isApprovedForAll",
      "outputs": [
        {
          "internalType": "bool",
          "name": "",
          "type": "bool"
        }
      ],
      "stateMutability": "view",
      "type": "function"
    },
    {
      "inputs": [],
      "name": "maxSupply",
      "outputs": [
        {
          "internalType": "uint256",
          "name": "",
          "type": "uint256"
        }
      ],
      "stateMutability": "view",
      "type": "function"
    },
    {
      "inputs": [],
      "name": "merkleRoot",
      "outputs": [
        {
          "internalType": "bytes32",
          "name": "",
          "type": "bytes32"
        }
      ],
      "stateMutability": "view",
      "type": "function"
    },
    {
      "inputs": [],
      "name": "mint",
      "outputs": [],
      "stateMutability": "payable",
      "type": "function"
    },
    {
      "inputs": [
        {
          "internalType": "bytes32[]",
          "name": "_merkleProof",
          "type": "bytes32[]"
        }
      ],
      "name": "mintGold",
      "outputs": [],
      "stateMutability": "payable",
      "type": "function"
    },
    {
      "inputs": [],
      "name": "mintPriceInWei",
      "outputs": [
        {
          "internalType": "uint256",
          "name": "",
          "type": "uint256"
        }
      ],
      "stateMutability": "view",
      "type": "function"
    },
    {
      "inputs": [],
      "name": "name",
      "outputs": [
        {
          "internalType": "string",
          "name": "",
          "type": "string"
        }
      ],
      "stateMutability": "view",
      "type": "function"
    },
    {
      "inputs": [],
      "name": "nextTokenID",
      "outputs": [
        {
          "internalType": "uint256",
          "name": "",
          "type": "uint256"
        }
      ],
      "stateMutability": "view",
      "type": "function"
    },
    {
      "inputs": [],
      "name": "numOfMints",
      "outputs": [
        {
          "internalType": "uint256",
          "name": "",
          "type": "uint256"
        }
      ],
      "stateMutability": "view",
      "type": "function"
    },
    {
      "inputs": [],
      "name": "owner",
      "outputs": [
        {
          "internalType": "address",
          "name": "",
          "type": "address"
        }
      ],
      "stateMutability": "view",
      "type": "function"
    },
    {
      "inputs": [
        {
          "internalType": "uint256",
          "name": "tokenId",
          "type": "uint256"
        }
      ],
      "name": "ownerOf",
      "outputs": [
        {
          "internalType": "address",
          "name": "",
          "type": "address"
        }
      ],
      "stateMutability": "view",
      "type": "function"
    },
    {
      "inputs": [],
      "name": "pause",
      "outputs": [],
      "stateMutability": "nonpayable",
      "type": "function"
    },
    {
      "inputs": [],
      "name": "paused",
      "outputs": [
        {
          "internalType": "bool",
          "name": "",
          "type": "bool"
        }
      ],
      "stateMutability": "view",
      "type": "function"
    },
    {
      "inputs": [],
      "name": "proxyRegistryAddress",
      "outputs": [
        {
          "internalType": "address",
          "name": "",
          "type": "address"
        }
      ],
      "stateMutability": "view",
      "type": "function"
    },
    {
      "inputs": [],
      "name": "renounceOwnership",
      "outputs": [],
      "stateMutability": "nonpayable",
      "type": "function"
    },
    {
      "inputs": [
        {
          "internalType": "address",
          "name": "from",
          "type": "address"
        },
        {
          "internalType": "address",
          "name": "to",
          "type": "address"
        },
        {
          "internalType": "uint256",
          "name": "tokenId",
          "type": "uint256"
        }
      ],
      "name": "safeTransferFrom",
      "outputs": [],
      "stateMutability": "nonpayable",
      "type": "function"
    },
    {
      "inputs": [
        {
          "internalType": "address",
          "name": "from",
          "type": "address"
        },
        {
          "internalType": "address",
          "name": "to",
          "type": "address"
        },
        {
          "internalType": "uint256",
          "name": "tokenId",
          "type": "uint256"
        },
        {
          "internalType": "bytes",
          "name": "_data",
          "type": "bytes"
        }
      ],
      "name": "safeTransferFrom",
      "outputs": [],
      "stateMutability": "nonpayable",
      "type": "function"
    },
    {
      "inputs": [
        {
          "internalType": "address",
          "name": "operator",
          "type": "address"
        },
        {
          "internalType": "bool",
          "name": "approved",
          "type": "bool"
        }
      ],
      "name": "setApprovalForAll",
      "outputs": [],
      "stateMutability": "nonpayable",
      "type": "function"
    },
    {
      "inputs": [
        {
          "internalType": "bytes32",
          "name": "_merkleRoot",
          "type": "bytes32"
        }
      ],
      "name": "setMerkleRoot",
      "outputs": [],
      "stateMutability": "nonpayable",
      "type": "function"
    },
    {
      "inputs": [
        {
          "internalType": "address",
          "name": "_proxyRegistryAddress",
          "type": "address"
        }
      ],
      "name": "setProxyRegistryAddress",
      "outputs": [],
      "stateMutability": "nonpayable",
      "type": "function"
    },
    {
      "inputs": [
        {
          "internalType": "bytes4",
          "name": "interfaceId",
          "type": "bytes4"
        }
      ],
      "name": "supportsInterface",
      "outputs": [
        {
          "internalType": "bool",
          "name": "",
          "type": "bool"
        }
      ],
      "stateMutability": "view",
      "type": "function"
    },
    {
      "inputs": [],
      "name": "symbol",
      "outputs": [
        {
          "internalType": "string",
          "name": "",
          "type": "string"
        }
      ],
      "stateMutability": "view",
      "type": "function"
    },
    {
      "inputs": [
        {
          "internalType": "uint256",
          "name": "_tokenId",
          "type": "uint256"
        }
      ],
      "name": "tokenURI",
      "outputs": [
        {
          "internalType": "string",
          "name": "",
          "type": "string"
        }
      ],
      "stateMutability": "view",
      "type": "function"
    },
    {
      "inputs": [
        {
          "internalType": "address",
          "name": "from",
          "type": "address"
        },
        {
          "internalType": "address",
          "name": "to",
          "type": "address"
        },
        {
          "internalType": "uint256",
          "name": "tokenId",
          "type": "uint256"
        }
      ],
      "name": "transferFrom",
      "outputs": [],
      "stateMutability": "nonpayable",
      "type": "function"
    },
    {
      "inputs": [
        {
          "internalType": "address",
          "name": "newOwner",
          "type": "address"
        }
      ],
      "name": "transferOwnership",
      "outputs": [],
      "stateMutability": "nonpayable",
      "type": "function"
    },
    {
      "inputs": [],
      "name": "unpause",
      "outputs": [],
      "stateMutability": "nonpayable",
      "type": "function"
    }
  ],
  "bytecode": "0x60806040523480156200001157600080fd5b5060405162002a1e38038062002a1e8339810160408190526200003491620002a9565b8651879087906200004d90600090602085019062000150565b5080516200006390600190602084019062000150565b505050620000806200007a620000f160201b60201c565b620000f5565b6006805460ff60a01b191690556009839055600a829055600b819055600c80546001600160a01b0319166001600160a01b0386161790558451620000cc90600790602088019062000150565b50620000e460086200014760201b620013361760201c565b50505050505050620003c9565b3390565b600680546001600160a01b038381166001600160a01b0319831681179093556040519116919082907f8be0079c531659141344cd1fd0a4f28419497f9722a3daafe3b4186f6b6457e090600090a35050565b80546001019055565b8280546200015e9062000376565b90600052602060002090601f016020900481019282620001825760008555620001cd565b82601f106200019d57805160ff1916838001178555620001cd565b82800160010185558215620001cd579182015b82811115620001cd578251825591602001919060010190620001b0565b50620001db929150620001df565b5090565b5b80821115620001db5760008155600101620001e0565b600082601f83011262000207578081fd5b81516001600160401b0380821115620002245762000224620003b3565b604051601f8301601f19908116603f011681019082821181831017156200024f576200024f620003b3565b816040528381526020925086838588010111156200026b578485fd5b8491505b838210156200028e57858201830151818301840152908201906200026f565b838211156200029f57848385830101525b9695505050505050565b600080600080600080600060e0888a031215620002c4578283fd5b87516001600160401b0380821115620002db578485fd5b620002e98b838c01620001f6565b985060208a0151915080821115620002ff578485fd5b6200030d8b838c01620001f6565b975060408a015191508082111562000323578485fd5b50620003328a828b01620001f6565b60608a015190965090506001600160a01b038116811462000351578384fd5b809450506080880151925060a0880151915060c0880151905092959891949750929550565b600181811c908216806200038b57607f821691505b60208210811415620003ad57634e487b7160e01b600052602260045260246000fd5b50919050565b634e487b7160e01b600052604160045260246000fd5b61264580620003d96000396000f3fe6080604052600436106101c25760003560e01c80637cb64759116100f7578063c87b56dd11610095578063e985e9c511610064578063e985e9c5146104c4578063f101e481146104e4578063f2fde38b146104f9578063f43303681461051957600080fd5b8063c87b56dd1461044e578063cd7c03261461046e578063d26ea6c01461048e578063d5abeb01146104ae57600080fd5b806395d89b41116100d157806395d89b41146103e45780639bcbba13146103f9578063a22cb4651461040e578063b88d4fde1461042e57600080fd5b80637cb64759146103915780638456cb59146103b15780638da5cb5b146103c657600080fd5b80632eb4a7ab116101645780635c975abb1161013e5780635c975abb1461030c5780636352211e1461033c57806370a082311461035c578063715018a61461037c57600080fd5b80632eb4a7ab146102b35780633f4ba83a146102d757806342842e0e146102ec57600080fd5b8063095ea7b3116101a0578063095ea7b3146102565780630b23d670146102785780631249c58b1461028b57806323b872dd1461029357600080fd5b806301ffc9a7146101c757806306fdde03146101fc578063081812fc1461021e575b600080fd5b3480156101d357600080fd5b506101e76101e2366004612370565b61052f565b60405190151581526020015b60405180910390f35b34801561020857600080fd5b50610211610614565b6040516101f3919061245b565b34801561022a57600080fd5b5061023e610239366004612358565b6106a6565b6040516001600160a01b0390911681526020016101f3565b34801561026257600080fd5b506102766102713660046122bd565b610751565b005b6102766102863660046122e8565b610883565b610276610aca565b34801561029f57600080fd5b506102766102ae366004612173565b610c35565b3480156102bf57600080fd5b506102c9600b5481565b6040519081526020016101f3565b3480156102e357600080fd5b50610276610cbc565b3480156102f857600080fd5b50610276610307366004612173565b610d20565b34801561031857600080fd5b5060065474010000000000000000000000000000000000000000900460ff166101e7565b34801561034857600080fd5b5061023e610357366004612358565b610d3b565b34801561036857600080fd5b506102c961037736600461211f565b610dc6565b34801561038857600080fd5b50610276610e60565b34801561039d57600080fd5b506102766103ac366004612358565b610ec4565b3480156103bd57600080fd5b50610276610f23565b3480156103d257600080fd5b506006546001600160a01b031661023e565b3480156103f057600080fd5b50610211610f85565b34801561040557600080fd5b506102c9610f94565b34801561041a57600080fd5b5061027661042936600461228c565b610fb0565b34801561043a57600080fd5b506102766104493660046121b3565b610fbf565b34801561045a57600080fd5b50610211610469366004612358565b61104d565b34801561047a57600080fd5b50600c5461023e906001600160a01b031681565b34801561049a57600080fd5b506102766104a936600461211f565b6110bd565b3480156104ba57600080fd5b506102c960095481565b3480156104d057600080fd5b506101e76104df36600461213b565b611151565b3480156104f057600080fd5b506102c961124c565b34801561050557600080fd5b5061027661051436600461211f565b611257565b34801561052557600080fd5b506102c9600a5481565b60007fffffffff0000000000000000000000000000000000000000000000000000000082167f80ac58cd0000000000000000000000000000000000000000000000000000000014806105c257507fffffffff0000000000000000000000000000000000000000000000000000000082167f5b5e139f00000000000000000000000000000000000000000000000000000000145b8061060e57507f01ffc9a7000000000000000000000000000000000000000000000000000000007fffffffff000000000000000000000000000000000000000000000000000000008316145b92915050565b60606000805461062390612502565b80601f016020809104026020016040519081016040528092919081815260200182805461064f90612502565b801561069c5780601f106106715761010080835404028352916020019161069c565b820191906000526020600020905b81548152906001019060200180831161067f57829003601f168201915b5050505050905090565b6000818152600260205260408120546001600160a01b03166107355760405162461bcd60e51b815260206004820152602c60248201527f4552433732313a20617070726f76656420717565727920666f72206e6f6e657860448201527f697374656e7420746f6b656e000000000000000000000000000000000000000060648201526084015b60405180910390fd5b506000908152600460205260409020546001600160a01b031690565b600061075c82610d3b565b9050806001600160a01b0316836001600160a01b031614156107e65760405162461bcd60e51b815260206004820152602160248201527f4552433732313a20617070726f76616c20746f2063757272656e74206f776e6560448201527f7200000000000000000000000000000000000000000000000000000000000000606482015260840161072c565b336001600160a01b038216148061080257506108028133611151565b6108745760405162461bcd60e51b815260206004820152603860248201527f4552433732313a20617070726f76652063616c6c6572206973206e6f74206f7760448201527f6e6572206e6f7220617070726f76656420666f7220616c6c0000000000000000606482015260840161072c565b61087e838361133f565b505050565b600b54156109c657336000908152600d602052604090205460ff16156108eb5760405162461bcd60e51b815260206004820152601b60248201527f416464726573732068617320616c726561647920636c61696d65640000000000604482015260640161072c565b6040517fffffffffffffffffffffffffffffffffffffffff0000000000000000000000003360601b16602082015260009060340160405160208183030381529060405280519060200120905061097883838080602002602001604051908101604052809392919081815260200183836020028082843760009201919091525050600b5491508490506113c5565b6109c45760405162461bcd60e51b815260206004820152601760248201527f41646472657373206e6f7420696e20676f6c646c697374000000000000000000604482015260640161072c565b505b60006109d160085490565b9050600954811115610a255760405162461bcd60e51b815260206004820152600860248201527f536f6c64206f7574000000000000000000000000000000000000000000000000604482015260640161072c565b600a54341015610a775760405162461bcd60e51b815260206004820152600f60248201527f4e6f7420656e6f7567682066756e640000000000000000000000000000000000604482015260640161072c565b336000908152600d60205260408120805460019290610a9a90849060ff16612486565b92506101000a81548160ff021916908360ff160217905550610ac0600880546001019055565b61087e33826113db565b6000610ad560085490565b9050600954811115610b295760405162461bcd60e51b815260206004820152600860248201527f536f6c64206f7574000000000000000000000000000000000000000000000000604482015260640161072c565b600a54341015610b7b5760405162461bcd60e51b815260206004820152600f60248201527f4e6f7420656e6f7567682066756e640000000000000000000000000000000000604482015260640161072c565b336000908152600d6020526040902054600660ff90911610610bdf5760405162461bcd60e51b815260206004820152601560248201527f4e6f206d6f7265206d696e7420666f7220757365720000000000000000000000604482015260640161072c565b336000908152600d60205260408120805460019290610c0290849060ff16612486565b92506101000a81548160ff021916908360ff160217905550610c28600880546001019055565b610c3233826113db565b50565b610c3f33826113f5565b610cb15760405162461bcd60e51b815260206004820152603160248201527f4552433732313a207472616e736665722063616c6c6572206973206e6f74206f60448201527f776e6572206e6f7220617070726f766564000000000000000000000000000000606482015260840161072c565b61087e8383836114dd565b6006546001600160a01b03163314610d165760405162461bcd60e51b815260206004820181905260248201527f4f776e61626c653a2063616c6c6572206973206e6f7420746865206f776e6572604482015260640161072c565b610d1e6116cd565b565b61087e83838360405180602001604052806000815250610fbf565b6000818152600260205260408120546001600160a01b03168061060e5760405162461bcd60e51b815260206004820152602960248201527f4552433732313a206f776e657220717565727920666f72206e6f6e657869737460448201527f656e7420746f6b656e0000000000000000000000000000000000000000000000606482015260840161072c565b60006001600160a01b038216610e445760405162461bcd60e51b815260206004820152602a60248201527f4552433732313a2062616c616e636520717565727920666f7220746865207a6560448201527f726f206164647265737300000000000000000000000000000000000000000000606482015260840161072c565b506001600160a01b031660009081526003602052604090205490565b6006546001600160a01b03163314610eba5760405162461bcd60e51b815260206004820181905260248201527f4f776e61626c653a2063616c6c6572206973206e6f7420746865206f776e6572604482015260640161072c565b610d1e600061179f565b6006546001600160a01b03163314610f1e5760405162461bcd60e51b815260206004820181905260248201527f4f776e61626c653a2063616c6c6572206973206e6f7420746865206f776e6572604482015260640161072c565b600b55565b6006546001600160a01b03163314610f7d5760405162461bcd60e51b815260206004820181905260248201527f4f776e61626c653a2063616c6c6572206973206e6f7420746865206f776e6572604482015260640161072c565b610d1e611809565b60606001805461062390612502565b60006001610fa160085490565b610fab91906124bf565b905090565b610fbb3383836118db565b5050565b610fc933836113f5565b61103b5760405162461bcd60e51b815260206004820152603160248201527f4552433732313a207472616e736665722063616c6c6572206973206e6f74206f60448201527f776e6572206e6f7220617070726f766564000000000000000000000000000000606482015260840161072c565b611047848484846119c8565b50505050565b6000818152600260205260409020546060906001600160a01b03166110b45760405162461bcd60e51b815260206004820152601f60248201527f55524920717565727920666f72206e6f6e6578697374656e7420746f6b656e00604482015260640161072c565b61060e82611a51565b6006546001600160a01b031633146111175760405162461bcd60e51b815260206004820181905260248201527f4f776e61626c653a2063616c6c6572206973206e6f7420746865206f776e6572604482015260640161072c565b600c80547fffffffffffffffffffffffff0000000000000000000000000000000000000000166001600160a01b0392909216919091179055565b600c546000906001600160a01b03161561121b57600c546040517fc45527910000000000000000000000000000000000000000000000000000000081526001600160a01b03858116600483015291821691841690829063c45527919060240160206040518083038186803b1580156111c857600080fd5b505afa1580156111dc573d6000803e3d6000fd5b505050506040513d601f19601f8201168201806040525081019061120091906123a8565b6001600160a01b0316141561121957600191505061060e565b505b6001600160a01b0380841660009081526005602090815260408083209386168352929052205460ff165b9392505050565b6000610fab60085490565b6006546001600160a01b031633146112b15760405162461bcd60e51b815260206004820181905260248201527f4f776e61626c653a2063616c6c6572206973206e6f7420746865206f776e6572604482015260640161072c565b6001600160a01b03811661132d5760405162461bcd60e51b815260206004820152602660248201527f4f776e61626c653a206e6577206f776e657220697320746865207a65726f206160448201527f6464726573730000000000000000000000000000000000000000000000000000606482015260840161072c565b610c328161179f565b80546001019055565b600081815260046020526040902080547fffffffffffffffffffffffff0000000000000000000000000000000000000000166001600160a01b038416908117909155819061138c82610d3b565b6001600160a01b03167f8c5be1e5ebec7d5bd14f71427d1e84f3dd0314c0f7b2291e5b200ac8c7c3b92560405160405180910390a45050565b6000826113d28584611b39565b14949350505050565b610fbb828260405180602001604052806000815250611bbb565b6000818152600260205260408120546001600160a01b031661147f5760405162461bcd60e51b815260206004820152602c60248201527f4552433732313a206f70657261746f7220717565727920666f72206e6f6e657860448201527f697374656e7420746f6b656e0000000000000000000000000000000000000000606482015260840161072c565b600061148a83610d3b565b9050806001600160a01b0316846001600160a01b031614806114c55750836001600160a01b03166114ba846106a6565b6001600160a01b0316145b806114d557506114d58185611151565b949350505050565b826001600160a01b03166114f082610d3b565b6001600160a01b03161461156c5760405162461bcd60e51b815260206004820152602560248201527f4552433732313a207472616e736665722066726f6d20696e636f72726563742060448201527f6f776e6572000000000000000000000000000000000000000000000000000000606482015260840161072c565b6001600160a01b0382166115e75760405162461bcd60e51b8152602060048201526024808201527f4552433732313a207472616e7366657220746f20746865207a65726f2061646460448201527f7265737300000000000000000000000000000000000000000000000000000000606482015260840161072c565b6115f2838383611c44565b6115fd60008261133f565b6001600160a01b03831660009081526003602052604081208054600192906116269084906124bf565b90915550506001600160a01b038216600090815260036020526040812080546001929061165490849061246e565b909155505060008181526002602052604080822080547fffffffffffffffffffffffff0000000000000000000000000000000000000000166001600160a01b0386811691821790925591518493918716917fddf252ad1be2c89b69c2b068fc378daa952ba7f163c4a11628f55a4df523b3ef91a4505050565b60065474010000000000000000000000000000000000000000900460ff166117375760405162461bcd60e51b815260206004820152601460248201527f5061757361626c653a206e6f7420706175736564000000000000000000000000604482015260640161072c565b600680547fffffffffffffffffffffff00ffffffffffffffffffffffffffffffffffffffff1690557f5db9ee0a495bf2e6ff9c91a7834c1ba4fdd244a5e8aa4e537bd38aeae4b073aa335b6040516001600160a01b03909116815260200160405180910390a1565b600680546001600160a01b038381167fffffffffffffffffffffffff0000000000000000000000000000000000000000831681179093556040519116919082907f8be0079c531659141344cd1fd0a4f28419497f9722a3daafe3b4186f6b6457e090600090a35050565b60065474010000000000000000000000000000000000000000900460ff16156118745760405162461bcd60e51b815260206004820152601060248201527f5061757361626c653a2070617573656400000000000000000000000000000000604482015260640161072c565b600680547fffffffffffffffffffffff00ffffffffffffffffffffffffffffffffffffffff16740100000000000000000000000000000000000000001790557f62e78cea01bee320cd4e420270b5ea74000d11b0c9f74754ebdbfc544b05a2586117823390565b816001600160a01b0316836001600160a01b0316141561193d5760405162461bcd60e51b815260206004820152601960248201527f4552433732313a20617070726f766520746f2063616c6c657200000000000000604482015260640161072c565b6001600160a01b0383811660008181526005602090815260408083209487168084529482529182902080547fffffffffffffffffffffffffffffffffffffffffffffffffffffffffffffff001686151590811790915591519182527f17307eab39ab6107e8899845ad3d59bd9653f200f220920489ca2b5937696c31910160405180910390a3505050565b6119d38484846114dd565b6119df84848484611caf565b6110475760405162461bcd60e51b815260206004820152603260248201527f4552433732313a207472616e7366657220746f206e6f6e20455243373231526560448201527f63656976657220696d706c656d656e7465720000000000000000000000000000606482015260840161072c565b6000818152600260205260409020546060906001600160a01b0316611ade5760405162461bcd60e51b815260206004820152602f60248201527f4552433732314d657461646174613a2055524920717565727920666f72206e6f60448201527f6e6578697374656e7420746f6b656e0000000000000000000000000000000000606482015260840161072c565b6000611ae8611e5c565b90506000815111611b085760405180602001604052806000815250611245565b80611b1284611e6b565b604051602001611b239291906123f0565b6040516020818303038152906040529392505050565b600081815b8451811015611bb3576000858281518110611b6957634e487b7160e01b600052603260045260246000fd5b60200260200101519050808311611b8f5760008381526020829052604090209250611ba0565b600081815260208490526040902092505b5080611bab8161253d565b915050611b3e565b509392505050565b611bc58383611fb9565b611bd26000848484611caf565b61087e5760405162461bcd60e51b815260206004820152603260248201527f4552433732313a207472616e7366657220746f206e6f6e20455243373231526560448201527f63656976657220696d706c656d656e7465720000000000000000000000000000606482015260840161072c565b60065474010000000000000000000000000000000000000000900460ff161561087e5760405162461bcd60e51b815260206004820152601060248201527f5061757361626c653a2070617573656400000000000000000000000000000000604482015260640161072c565b60006001600160a01b0384163b15611e51576040517f150b7a020000000000000000000000000000000000000000000000000000000081526001600160a01b0385169063150b7a0290611d0c90339089908890889060040161241f565b602060405180830381600087803b158015611d2657600080fd5b505af1925050508015611d56575060408051601f3d908101601f19168201909252611d539181019061238c565b60015b611e06573d808015611d84576040519150601f19603f3d011682016040523d82523d6000602084013e611d89565b606091505b508051611dfe5760405162461bcd60e51b815260206004820152603260248201527f4552433732313a207472616e7366657220746f206e6f6e20455243373231526560448201527f63656976657220696d706c656d656e7465720000000000000000000000000000606482015260840161072c565b805181602001fd5b7fffffffff00000000000000000000000000000000000000000000000000000000167f150b7a02000000000000000000000000000000000000000000000000000000001490506114d5565b506001949350505050565b60606007805461062390612502565b606081611eab57505060408051808201909152600181527f3000000000000000000000000000000000000000000000000000000000000000602082015290565b8160005b8115611ed55780611ebf8161253d565b9150611ece9050600a836124ab565b9150611eaf565b60008167ffffffffffffffff811115611efe57634e487b7160e01b600052604160045260246000fd5b6040519080825280601f01601f191660200182016040528015611f28576020820181803683370190505b5090505b84156114d557611f3d6001836124bf565b9150611f4a600a86612576565b611f5590603061246e565b60f81b818381518110611f7857634e487b7160e01b600052603260045260246000fd5b60200101907effffffffffffffffffffffffffffffffffffffffffffffffffffffffffffff1916908160001a905350611fb2600a866124ab565b9450611f2c565b6001600160a01b03821661200f5760405162461bcd60e51b815260206004820181905260248201527f4552433732313a206d696e7420746f20746865207a65726f2061646472657373604482015260640161072c565b6000818152600260205260409020546001600160a01b0316156120745760405162461bcd60e51b815260206004820152601c60248201527f4552433732313a20746f6b656e20616c7265616479206d696e74656400000000604482015260640161072c565b61208060008383611c44565b6001600160a01b03821660009081526003602052604081208054600192906120a990849061246e565b909155505060008181526002602052604080822080547fffffffffffffffffffffffff0000000000000000000000000000000000000000166001600160a01b03861690811790915590518392907fddf252ad1be2c89b69c2b068fc378daa952ba7f163c4a11628f55a4df523b3ef908290a45050565b600060208284031215612130578081fd5b8135611245816125cc565b6000806040838503121561214d578081fd5b8235612158816125cc565b91506020830135612168816125cc565b809150509250929050565b600080600060608486031215612187578081fd5b8335612192816125cc565b925060208401356121a2816125cc565b929592945050506040919091013590565b600080600080608085870312156121c8578081fd5b84356121d3816125cc565b935060208501356121e3816125cc565b925060408501359150606085013567ffffffffffffffff80821115612206578283fd5b818701915087601f830112612219578283fd5b81358181111561222b5761222b6125b6565b604051601f8201601f19908116603f01168101908382118183101715612253576122536125b6565b816040528281528a602084870101111561226b578586fd5b82602086016020830137918201602001949094529598949750929550505050565b6000806040838503121561229e578182fd5b82356122a9816125cc565b915060208301358015158114612168578182fd5b600080604083850312156122cf578182fd5b82356122da816125cc565b946020939093013593505050565b600080602083850312156122fa578182fd5b823567ffffffffffffffff80821115612311578384fd5b818501915085601f830112612324578384fd5b813581811115612332578485fd5b8660208260051b8501011115612346578485fd5b60209290920196919550909350505050565b600060208284031215612369578081fd5b5035919050565b600060208284031215612381578081fd5b8135611245816125e1565b60006020828403121561239d578081fd5b8151611245816125e1565b6000602082840312156123b9578081fd5b8151611245816125cc565b600081518084526123dc8160208601602086016124d6565b601f01601f19169290920160200192915050565b600083516124028184602088016124d6565b8351908301906124168183602088016124d6565b01949350505050565b60006001600160a01b0380871683528086166020840152508360408301526080606083015261245160808301846123c4565b9695505050505050565b60208152600061124560208301846123c4565b600082198211156124815761248161258a565b500190565b600060ff821660ff84168060ff038211156124a3576124a361258a565b019392505050565b6000826124ba576124ba6125a0565b500490565b6000828210156124d1576124d161258a565b500390565b60005b838110156124f15781810151838201526020016124d9565b838111156110475750506000910152565b600181811c9082168061251657607f821691505b6020821081141561253757634e487b7160e01b600052602260045260246000fd5b50919050565b60007fffffffffffffffffffffffffffffffffffffffffffffffffffffffffffffffff82141561256f5761256f61258a565b5060010190565b600082612585576125856125a0565b500690565b634e487b7160e01b600052601160045260246000fd5b634e487b7160e01b600052601260045260246000fd5b634e487b7160e01b600052604160045260246000fd5b6001600160a01b0381168114610c3257600080fd5b7fffffffff0000000000000000000000000000000000000000000000000000000081168114610c3257600080fdfea2646970667358221220d71a1a0c8428a30b2e0335a4512c8fcc6abaa89e3b3524e0f9a1d4199ea81fab64736f6c63430008040033",
  "linkReferences": {},
  "deployedLinkReferences": {}
}